{"abi":[{"type":"constructor","inputs":[{"name":"token","type":"address","internalType":"address"},{"name":"initialOwner","type":"address","internalType":"address"}],"stateMutability":"nonpayable"},{"type":"function","name":"MAX_AGENTS_PER_SEASON","inputs":[],"outputs":[{"name":"","type":"uint256","internalType":"uint256"}],"stateMutability":"view"},{"type":"function","name":"WAD","inputs":[],"outputs":[{"name":"","type":"uint256","internalType":"uint256"}],"stateMutability":"view"},{"type":"function","name":"acceptOwnership","inputs":[],"outputs":[],"stateMutability":"nonpayable"},{"type":"function","name":"arenaToken","inputs":[],"outputs":[{"name":"","type":"address","internalType":"contract IERC20"}],"stateMutability":"view"},{"type":"function","name":"claim","inputs":[{"name":"seasonId","type":"string","internalType":"string"}],"outputs":[],"stateMutability":"nonpayable"},{"type":"function","name":"claimAgent","inputs":[{"name":"seasonId","type":"string","internalType":"string"},{"name":"agentId","type":"string","internalType":"string"}],"outputs":[],"stateMutability":"nonpayable"},{"type":"function","name":"claimAgents","inputs":[{"name":"seasonId","type":"string","internalType":"string"},{"name":"agentIds","type":"string[]","internalType":"string[]"}],"outputs":[],"stateMutability":"nonpayable"},{"type":"function","name":"getSeasonAgents","inputs":[{"name":"seasonId","type":"string","internalType":"string"}],"outputs":[{"name":"","type":"bytes32[]","internalType":"bytes32[]"}],"stateMutability":"view"},{"type":"function","name":"lockSettler","inputs":[],"outputs":[],"stateMutability":"nonpayable"},{"type":"function","name":"owner","inputs":[],"outputs":[{"name":"","type":"address","internalType":"address"}],"stateMutability":"view"},{"type":"function","name":"pause","inputs":[],"outputs":[],"stateMutability":"nonpayable"},{"type":"function","name":"paused","inputs":[],"outputs":[{"name":"","type":"bool","internalType":"bool"}],"stateMutability":"view"},{"type":"function","name":"pendingOwner","inputs":[],"outputs":[{"name":"","type":"address","internalType":"address"}],"stateMutability":"view"},{"type":"function","name":"seasonSettled","inputs":[{"name":"","type":"bytes32","internalType":"bytes32"}],"outputs":[{"name":"","type":"bool","internalType":"bool"}],"stateMutability":"view"},{"type":"function","name":"seasonWeightWad","inputs":[{"name":"","type":"bytes32","internalType":"bytes32"},{"name":"","type":"bytes32","internalType":"bytes32"}],"outputs":[{"name":"","type":"uint256","internalType":"uint256"}],"stateMutability":"view"},{"type":"function","name":"setSeasonWeights","inputs":[{"name":"seasonId","type":"string","internalType":"string"},{"name":"agentIds","type":"string[]","internalType":"string[]"},{"name":"weightsWad","type":"uint256[]","internalType":"uint256[]"}],"outputs":[],"stateMutability":"nonpayable"},{"type":"function","name":"setSettler","inputs":[{"name":"newSettler","type":"address","internalType":"address"}],"outputs":[],"stateMutability":"nonpayable"},{"type":"function","name":"settler","inputs":[],"outputs":[{"name":"","type":"address","internalType":"address"}],"stateMutability":"view"},{"type":"function","name":"settlerLocked","inputs":[],"outputs":[{"name":"","type":"bool","internalType":"bool"}],"stateMutability":"view"},{"type":"function","name":"stake","inputs":[{"name":"seasonId","type":"string","internalType":"string"},{"name":"agentId","type":"string","internalType":"string"},{"name":"amount","type":"uint256","internalType":"uint256"}],"outputs":[],"stateMutability":"nonpayable"},{"type":"function","name":"totalSeasonPool","inputs":[{"name":"","type":"bytes32","internalType":"bytes32"}],"outputs":[{"name":"","type":"uint256","internalType":"uint256"}],"stateMutability":"view"},{"type":"function","name":"totalStakeBySeasonAgent","inputs":[{"name":"","type":"bytes32","internalType":"bytes32"},{"name":"","type":"bytes32","internalType":"bytes32"}],"outputs":[{"name":"","type":"uint256","internalType":"uint256"}],"stateMutability":"view"},{"type":"function","name":"transferOwnership","inputs":[{"name":"newOwner","type":"address","internalType":"address"}],"outputs":[],"stateMutability":"nonpayable"},{"type":"function","name":"unpause","inputs":[],"outputs":[],"stateMutability":"nonpayable"},{"type":"function","name":"userClaimed","inputs":[{"name":"","type":"bytes32","internalType":"bytes32"},{"name":"","type":"address","internalType":"address"}],"outputs":[{"name":"","type":"bool","internalType":"bool"}],"stateMutability":"view"},{"type":"function","name":"userClaimedBySeasonAgent","inputs":[{"name":"","type":"bytes32","internalType":"bytes32"},{"name":"","type":"bytes32","internalType":"bytes32"},{"name":"","type":"address","internalType":"address"}],"outputs":[{"name":"","type":"bool","internalType":"bool"}],"stateMutability":"view"},{"type":"function","name":"userStakeBySeasonAgent","inputs":[{"name":"","type":"bytes32","internalType":"bytes32"},{"name":"","type":"bytes32","internalType":"bytes32"},{"name":"","type":"address","internalType":"address"}],"outputs":[{"name":"","type":"uint256","internalType":"uint256"}],"stateMutability":"view"},{"type":"event","name":"Claimed","inputs":[{"name":"seasonId","type":"string","indexed":true,"internalType":"string"},{"name":"user","type":"address","indexed":true,"internalType":"address"},{"name":"amount","type":"uint256","indexed":false,"internalType":"uint256"}],"anonymous":false},{"type":"event","name":"ClaimedAgent","inputs":[{"name":"seasonId","type":"string","indexed":true,"internalType":"string"},{"name":"agentId","type":"string","indexed":true,"internalType":"string"},{"name":"user","type":"address","indexed":true,"internalType":"address"},{"name":"amount","type":"uint256","indexed":false,"internalType":"uint256"}],"anonymous":false},{"type":"event","name":"OwnershipTransferStarted","inputs":[{"name":"previousOwner","type":"address","indexed":true,"internalType":"address"},{"name":"newOwner","type":"address","indexed":true,"internalType":"address"}],"anonymous":false},{"type":"event","name":"OwnershipTransferred","inputs":[{"name":"previousOwner","type":"address","indexed":true,"internalType":"address"},{"name":"newOwner","type":"address","indexed":true,"internalType":"address"}],"anonymous":false},{"type":"event","name":"Paused","inputs":[{"name":"by","type":"address","indexed":true,"internalType":"address"}],"anonymous":false},{"type":"event","name":"SeasonSettled","inputs":[{"name":"seasonId","type":"string","indexed":true,"internalType":"string"}],"anonymous":false},{"type":"event","name":"SettlerLocked","inputs":[{"name":"by","type":"address","indexed":true,"internalType":"address"}],"anonymous":false},{"type":"event","name":"SettlerUpdated","inputs":[{"name":"settler","type":"address","indexed":true,"internalType":"address"}],"anonymous":false},{"type":"event","name":"Staked","inputs":[{"name":"seasonId","type":"string","indexed":true,"internalType":"string"},{"name":"agentId","type":"string","indexed":true,"internalType":"string"},{"name":"user","type":"address","indexed":true,"internalType":"address"},{"name":"amount","type":"uint256","indexed":false,"internalType":"uint256"}],"anonymous":false},{"type":"event","name":"Unpaused","inputs":[{"name":"by","type":"address","indexed":true,"internalType":"address"}],"anonymous":false}],"bytecode":{"object":"0x60a0346200016b57601f62001cec38819003918201601f19168301916001600160401b038311848410176200016f5780849260409485528339810103126200016b5760206200004e8262000183565b916001600160a01b0391829162000066910162000183565b1691821562000126575f80546001600160a01b0319168417815560405193907f8be0079c531659141344cd1fd0a4f28419497f9722a3daafe3b4186f6b6457e08180a316908115620000e45750608052604051611b5390816200019982396080518181816102ba01528181610e87015281816112d901526114180152f35b62461bcd60e51b815260206004820152601660248201527f4172656e615661756c743a207a65726f20746f6b656e000000000000000000006044820152606490fd5b60405162461bcd60e51b815260206004820152601360248201527f4f776e61626c653a207a65726f206f776e6572000000000000000000000000006044820152606490fd5b5f80fd5b634e487b7160e01b5f52604160045260245ffd5b51906001600160a01b03821682036200016b5756fe604060808152600480361015610013575f80fd5b5f3560e01c90816307f19eba1461149a57816309b94dd91461146e5781630a3c53f6146114475781631afa1f2f146114045781632584f8c9146113e8578163276420b6146111685781632ec8b6a5146111295781633f4ba83a146110d15781634c35bb2514610da257816351903fee14610ba2578163585f9ca114610b765781635c975abb14610b505781636196609614610a9057816368dfa74814610a6a5781636a14602414610a4857816379ba5097146109985781638456cb591461093a57816389dd86c71461061d5781638da5cb5b146105f65781639d8299d914610598578163ab221a7614610570578163b5a0acdf14610544578163c4071cf1146104fc578163e30c3978146104d4578163f2fde38b14610424578163f3fe12c91461018a575063fab8af9914610146575f80fd5b3461018657602090610157366115fa565b915f52600b8452825f20905f528352815f209060018060a01b03165f52825260ff815f20541690519015158152f35b5f80fd5b905034610186576020908160031936011261018657803567ffffffffffffffff8111610186576101bd90369083016115cc565b93909260019485549460ff946101d960ff8860a01c1615611696565b6101e960ff8860a81c16156116d7565b60ff60a81b19968716600160a81b17885561020d610208368585611752565b6119f9565b805f526008855261022360ff875f205416611798565b805f52600a8552855f20335f52855261024260ff875f205416156117e4565b88805f98835f5260058852885f205f935b610377575b50505050866102b592869261026e831515611830565b5f908152600a84528881203380835290855290899020805460ff19168d179055885163a9059cbb60e01b815291820190815260208101929092529283918291604090910190565b03815f7f00000000000000000000000000000000000000000000000000000000000000006001600160a01b03165af190811561036d577f7ca58b3d3af286614421364e3dc07e3961a7ce97c19ab3be45fdc2ad13d0b97d94939291610321915f91610340575b5061188c565b818551928392833781015f815203902092519384523393a38154169055005b6103609150853d8711610366575b610358818361171c565b810190611874565b5f61031b565b503d61034e565b85513d5f823e3d90fd5b9091929981548b101561041b5761038e8b83611924565b90549060031b1c90855f52600b91828b528b5f20815f528b528b5f20335f528b52848c5f205416610411576103c4338289611a58565b92831561040657918693916103fa93895f528d528d5f20905f528c528c5f20335f528c528c5f208460ff19825416179055611986565b9a5b0192919082610253565b50509a8491506103fc565b509a8491506103fc565b99839250610258565b9050346101865760203660031901126101865761043f6115a0565b5f546001600160a01b039081169291610459338514611655565b1692831561049b575050600180546001600160a01b031916831790557f38d16b8cac22d99fc7c124b9cd0de2d3fa1faef420bfe791d8c362d765e227005f80a3005b906020606492519162461bcd60e51b8352820152601360248201527227bbb730b136329d103d32b9379037bbb732b960691b6044820152fd5b8234610186575f3660031901126101865760015490516001600160a01b039091168152602090f35b82346101865780600319360112610186576024356001600160a01b0381169081900361018657602092355f52600a8352815f20905f52825260ff815f20541690519015158152f35b823461018657602036600319011261018657602091355f526008825260ff815f20541690519015158152f35b8234610186575f3660031901126101865760025490516001600160a01b039091168152602090f35b34610186575f366003190112610186576105bc60018060a01b035f54163314611655565b6002805460ff60a01b1916600160a01b179055337f85fd20528d964da8afb19213e00fd21568da54b1fff27ebdcf3e3fbbbd7fec555f80a2005b8234610186575f366003190112610186575f5490516001600160a01b039091168152602090f35b9050346101865760603660031901126101865767ffffffffffffffff9181358381116101865761065090369084016115cc565b9390926024358281116101865761066a9036908301611624565b919092604435908111610186576106849036908301611624565b6002549193916001600160a01b031633036108f75760ff946001916106b160ff60015460a01c1615611696565b8084036108b4576106c6610208368c8c611752565b95865f526020976008895260ff8a5f20541661087157939291905f945f965b898c8c838b106107a557505050505050505050670de0b6b3a764000091500361075457508492916008915f5252805f20600160ff1982541617905551928392833781015f81520390207f6c2396dd0011bebc9cc3c98ca0ede5383573806b4275d4da2f24cf430dbc2ad05f80a2005b835162461bcd60e51b8152908101839052602560248201527f4172656e615661756c743a20746f74616c20776569676874206d75737420626560448201526404062ca62760db1b6064820152608490fd5b918899918b610819946107f56107d06102086107c98e9f9a9b9c9d9e8c87916119a7565b3691611752565b92855f526006808452855f20855f5284528b865f20541615610827575b508c8c6119e9565b35935f5260098152825f20915f52525f20556108128a88886119e9565b3590611986565b9701969594939291906106e5565b865f52600590818552610840610100885f2054106118d8565b875f528452855f20855f528452855f208a60ff19825416179055865f52835261086b84865f2061194d565b5f6107ed565b895162461bcd60e51b81528088018a9052601b60248201527f4172656e615661756c743a20616c726561647920736574746c656400000000006044820152606490fd5b875162461bcd60e51b8152602081870152601b60248201527f4172656e615661756c743a206c656e677468206d69736d6174636800000000006044820152606490fd5b855162461bcd60e51b8152602081850152601760248201527f4172656e615661756c743a206e6f7420736574746c65720000000000000000006044820152606490fd5b34610186575f3660031901126101865761095e60018060a01b035f54163314611655565b6001805460ff60a01b1916600160a01b179055337f62e78cea01bee320cd4e420270b5ea74000d11b0c9f74754ebdbfc544b05a2585f80a2005b8234610186575f366003190112610186576001546001600160a01b03929091838316919033839003610a05575050805f549384167f8be0079c531659141344cd1fd0a4f28419497f9722a3daafe3b4186f6b6457e05f80a36001600160a01b0319928316175f5516600155005b906020606492519162461bcd60e51b8352820152601a60248201527f4f776e61626c653a206e6f742070656e64696e67206f776e65720000000000006044820152fd5b8234610186575f3660031901126101865760209051670de0b6b3a76400008152f35b8234610186575f3660031901126101865760209060ff60025460a01c1690519015158152f35b90503461018657602090816003193601126101865780359067ffffffffffffffff8211610186576102086107c9610acb9286943691016115cc565b5f5260058252805f208151928381835491828152019081935f52825f20905f5b818110610b3c5750505084610b0191038561171c565b825181815293518185018190528493840192915f5b828110610b2557505050500390f35b835185528695509381019392810192600101610b16565b825484529284019260019283019201610aeb565b8234610186575f3660031901126101865760209060ff60015460a01c1690519015158152f35b823461018657602090610b88366115b6565b905f5260038352815f20905f528252805f20549051908152f35b90503461018657816003193601126101865767ffffffffffffffff91813583811161018657610bd490369084016115cc565b91909360243590811161018657610bee9036908501611624565b9260019586549560ff93610c0860ff8960a01c1615611696565b610c1860ff8960a81c16156116d7565b60ff60a81b19978816600160a81b178955610c37610208368686611752565b805f5260209560088752610c5060ff895f205416611798565b815f52600a8752875f20335f528752610c6f60ff895f205416156117e4565b8815610d5f579791905f985f935b8c818610610cc55750505050505083866102b592610c9c821515611830565b875163a9059cbb60e01b8152339181019182526020820192909252909283918291604090910190565b90919293949a610cdc6102086107c98e868a6119a7565b90855f52600b91828c528c5f20815f528c528c5f20335f528c52858d5f205416610d5657610d0b338289611a58565b928315610d4c5790610d40939291885f528d528d5f20905f528c528c5f20335f528c528c5f208460ff19825416179055611986565b9a5b0193929190610c7d565b50509b9050610d42565b509b9050610d42565b875162461bcd60e51b8152808501889052601a60248201527f4172656e615661756c743a20656d707479206167656e744964730000000000006044820152606490fd5b82346101865760603660031901126101865767ffffffffffffffff823581811161018657610dd390369085016115cc565b92909160243590811161018657610ded90369086016115cc565b926044359360015495610e0660ff8860a01c1615611696565b610e1660ff8860a81c16156116d7565b60ff60a81b19968716600160a81b17600155851561108e57610e3c610208368386611752565b92610e4b610208368588611752565b93805f526020946008865260ff885f20541661104b5787516323b872dd60e01b8152338c820152306024820152604481018a905286816064815f7f00000000000000000000000000000000000000000000000000000000000000006001600160a01b03165af1908115611041575f91611024575b5015610fe1577fef100891f3ac498d69aa21727c2425b53083b25284acfd7b4a873820759d46e3969798999a825f5260068752895f20825f52875260ff8a5f20541615610f95575b825f5260038752895f20825f528752895f20610f248c8254611986565b9055825f528652885f20905f528552875f20335f528552875f20610f498a8254611986565b90555f5260078452865f20610f5f898254611986565b9055818751928392833781015f815203902093818651928392833781015f815203902093519485523394a4600154166001555f80f35b825f5260058752610fac6101008b5f2054106118d8565b825f5260068752895f20825f528752895f20600160ff19825416179055825f5260058752610fdc828b5f2061194d565b610f07565b875162461bcd60e51b8152808c01879052601f60248201527f4172656e615661756c743a207472616e7366657246726f6d206661696c6564006044820152606490fd5b61103b9150873d891161036657610358818361171c565b8c610ebf565b89513d5f823e3d90fd5b875162461bcd60e51b8152808c01879052601a60248201527f4172656e615661756c743a20736561736f6e20736574746c65640000000000006044820152606490fd5b845162461bcd60e51b81526020818a0152601760248201527f4172656e615661756c743a207a65726f20616d6f756e740000000000000000006044820152606490fd5b34610186575f366003190112610186576110f560018060a01b035f54163314611655565b6001805460ff60a01b19169055337f5db9ee0a495bf2e6ff9c91a7834c1ba4fdd244a5e8aa4e537bd38aeae4b073aa5f80a2005b82346101865760209161113b366115fa565b5f92835292855283822090825284528281206001600160a01b039092168152908352819020549051908152f35b823461018657806003193601126101865767ffffffffffffffff9082358281116101865761119990369085016115cc565b939092602435908111610186576111b390369083016115cc565b600192919254956111ca60ff8860a01c1615611696565b6111da60ff8860a81c16156116d7565b60ff60a81b19968716600160a81b176001556111fa610208368389611752565b95611209610208368588611752565b96805f526020946008865261122360ff895f205416611798565b815f52600a8652875f20335f52865261124260ff895f205416156117e4565b815f52600b8652875f20895f528652875f20335f52865260ff885f20541661139b576112d4918691611275338c84611a58565b9a8b92611283841515611830565b5f908152600b85528b81209181529084528a812033808352908552908b9020805460ff191660011790558a5163a9059cbb60e01b815291820190815260208101929092529283918291604090910190565b03815f7f00000000000000000000000000000000000000000000000000000000000000006001600160a01b03165af1908115611391577f17224e5aa4a49fb2246ee49467846e157fbe9c9d157d1e920bdb6085b10ea1f29594939291611340915f91611374575061188c565b818751928392833781015f815203902093818651928392833781015f815203902093519485523394a4600154166001555f80f35b61138b9150863d881161036657610358818361171c565b8b61031b565b87513d5f823e3d90fd5b875162461bcd60e51b8152908101869052602160248201527f4172656e615661756c743a206167656e7420616c726561647920636c61696d656044820152601960fa1b6064820152608490fd5b8234610186575f36600319011261018657602090516101008152f35b8234610186575f36600319011261018657517f00000000000000000000000000000000000000000000000000000000000000006001600160a01b03168152602090f35b823461018657602036600319011261018657602091355f5260078252805f20549051908152f35b823461018657602090611480366115b6565b905f5260098352815f20905f528252805f20549051908152f35b905034610186576020366003190112610186576114b56115a0565b5f546001600160a01b03906114cd9082163314611655565b6002549160ff8360a01c1661155d571691821561151a57506001600160a01b03191681176002557f1f53e003aaf46af23aeb50e85f438d6f0c33618ce44e3545f1ec030c79b177295f80a2005b606490602085519162461bcd60e51b8352820152601860248201527f4172656e615661756c743a207a65726f20736574746c657200000000000000006044820152fd5b845162461bcd60e51b8152602081860152601a60248201527f4172656e615661756c743a20736574746c6572206c6f636b65640000000000006044820152606490fd5b600435906001600160a01b038216820361018657565b6040906003190112610186576004359060243590565b9181601f840112156101865782359167ffffffffffffffff8311610186576020838186019501011161018657565b60609060031901126101865760043590602435906044356001600160a01b03811681036101865790565b9181601f840112156101865782359167ffffffffffffffff8311610186576020808501948460051b01011161018657565b1561165c57565b60405162461bcd60e51b815260206004820152601260248201527127bbb730b136329d103737ba1037bbb732b960711b6044820152606490fd5b1561169d57565b60405162461bcd60e51b8152602060048201526012602482015271105c995b9855985d5b1d0e881c185d5cd95960721b6044820152606490fd5b156116de57565b60405162461bcd60e51b81526020600482015260166024820152754172656e615661756c743a207265656e7472616e637960501b6044820152606490fd5b90601f8019910116810190811067ffffffffffffffff82111761173e57604052565b634e487b7160e01b5f52604160045260245ffd5b92919267ffffffffffffffff821161173e576040519161177c601f8201601f19166020018461171c565b829481845281830111610186578281602093845f960137010152565b1561179f57565b60405162461bcd60e51b815260206004820152601e60248201527f4172656e615661756c743a20736561736f6e206e6f7420736574746c656400006044820152606490fd5b156117eb57565b60405162461bcd60e51b815260206004820152601b60248201527f4172656e615661756c743a20616c726561647920636c61696d656400000000006044820152606490fd5b1561183757565b60405162461bcd60e51b8152602060048201526015602482015274105c995b9855985d5b1d0e881b9bc81c185e5bdd5d605a1b6044820152606490fd5b90816020910312610186575180151581036101865790565b1561189357565b60405162461bcd60e51b815260206004820152601b60248201527f4172656e615661756c743a207472616e73666572206661696c656400000000006044820152606490fd5b156118df57565b60405162461bcd60e51b815260206004820152601b60248201527f4172656e615661756c743a20746f6f206d616e79206167656e747300000000006044820152606490fd5b8054821015611939575f5260205f2001905f90565b634e487b7160e01b5f52603260045260245ffd5b80546801000000000000000081101561173e5761196f91600182018155611924565b819291549060031b91821b915f19901b1916179055565b9190820180921161199357565b634e487b7160e01b5f52601160045260245ffd5b91908110156119395760051b81013590601e198136030182121561018657019081359167ffffffffffffffff8311610186576020018236038113610186579190565b91908110156119395760051b0190565b6040519060209081838251925f5b848110611a2e575050611a269281015f8382015203808552018361171c565b815191012090565b818101840151878201850152859387935001611a07565b8181029291811591840414171561199357565b9091815f52602060048152604091825f20855f528252825f209060018060a01b03165f528152815f2054918215611b1457835f5260038252805f20855f528252805f2054948515611b0a57845f5260098352815f20905f528252805f2054908115611b0a576007611ad293611ad7965f52525f2054611a45565b611a45565b670de0b6b3a76400009180830292830403611993578115611af6570490565b634e487b7160e01b5f52601260045260245ffd5b5050505050505f90565b50505050505f9056fea26469706673582212202c58fa163d8ac136a8cfc679ad1942d9316d7da6188360d8ed260a92f95f258464736f6c63430008180033","linkReferences":{}},"methodIdentifiers":{"MAX_AGENTS_PER_SEASON()":"2584f8c9","WAD()":"6a146024","acceptOwnership()":"79ba5097","arenaToken()":"1afa1f2f","claim(string)":"f3fe12c9","claimAgent(string,string)":"276420b6","claimAgents(string,string[])":"51903fee","getSeasonAgents(string)":"61966096","lockSettler()":"9d8299d9","owner()":"8da5cb5b","pause()":"8456cb59","paused()":"5c975abb","pendingOwner()":"e30c3978","seasonSettled(bytes32)":"b5a0acdf","seasonWeightWad(bytes32,bytes32)":"09b94dd9","setSeasonWeights(string,string[],uint256[])":"89dd86c7","setSettler(address)":"07f19eba","settler()":"ab221a76","settlerLocked()":"68dfa748","stake(string,string,uint256)":"4c35bb25","totalSeasonPool(bytes32)":"0a3c53f6","totalStakeBySeasonAgent(bytes32,bytes32)":"585f9ca1","transferOwnership(address)":"f2fde38b","unpause()":"3f4ba83a","userClaimed(bytes32,address)":"c4071cf1","userClaimedBySeasonAgent(bytes32,bytes32,address)":"fab8af99","userStakeBySeasonAgent(bytes32,bytes32,address)":"2ec8b6a5"},"id":40}