{"abi":[{"type":"constructor","inputs":[{"name":"initialOwner","type":"address","internalType":"address"},{"name":"initialSupply","type":"uint256","internalType":"uint256"},{"name":"maxSupply","type":"uint256","internalType":"uint256"}],"stateMutability":"nonpayable"},{"type":"function","name":"acceptOwnership","inputs":[],"outputs":[],"stateMutability":"nonpayable"},{"type":"function","name":"allowance","inputs":[{"name":"","type":"address","internalType":"address"},{"name":"","type":"address","internalType":"address"}],"outputs":[{"name":"","type":"uint256","internalType":"uint256"}],"stateMutability":"view"},{"type":"function","name":"approve","inputs":[{"name":"spender","type":"address","internalType":"address"},{"name":"amount","type":"uint256","internalType":"uint256"}],"outputs":[{"name":"","type":"bool","internalType":"bool"}],"stateMutability":"nonpayable"},{"type":"function","name":"balanceOf","inputs":[{"name":"","type":"address","internalType":"address"}],"outputs":[{"name":"","type":"uint256","internalType":"uint256"}],"stateMutability":"view"},{"type":"function","name":"cap","inputs":[],"outputs":[{"name":"","type":"uint256","internalType":"uint256"}],"stateMutability":"view"},{"type":"function","name":"decimals","inputs":[],"outputs":[{"name":"","type":"uint8","internalType":"uint8"}],"stateMutability":"view"},{"type":"function","name":"mint","inputs":[{"name":"to","type":"address","internalType":"address"},{"name":"amount","type":"uint256","internalType":"uint256"}],"outputs":[],"stateMutability":"nonpayable"},{"type":"function","name":"name","inputs":[],"outputs":[{"name":"","type":"string","internalType":"string"}],"stateMutability":"view"},{"type":"function","name":"owner","inputs":[],"outputs":[{"name":"","type":"address","internalType":"address"}],"stateMutability":"view"},{"type":"function","name":"pendingOwner","inputs":[],"outputs":[{"name":"","type":"address","internalType":"address"}],"stateMutability":"view"},{"type":"function","name":"symbol","inputs":[],"outputs":[{"name":"","type":"string","internalType":"string"}],"stateMutability":"view"},{"type":"function","name":"totalSupply","inputs":[],"outputs":[{"name":"","type":"uint256","internalType":"uint256"}],"stateMutability":"view"},{"type":"function","name":"transfer","inputs":[{"name":"to","type":"address","internalType":"address"},{"name":"amount","type":"uint256","internalType":"uint256"}],"outputs":[{"name":"","type":"bool","internalType":"bool"}],"stateMutability":"nonpayable"},{"type":"function","name":"transferFrom","inputs":[{"name":"from","type":"address","internalType":"address"},{"name":"to","type":"address","internalType":"address"},{"name":"amount","type":"uint256","internalType":"uint256"}],"outputs":[{"name":"","type":"bool","internalType":"bool"}],"stateMutability":"nonpayable"},{"type":"function","name":"transferOwnership","inputs":[{"name":"newOwner","type":"address","internalType":"address"}],"outputs":[],"stateMutability":"nonpayable"},{"type":"event","name":"Approval","inputs":[{"name":"owner","type":"address","indexed":true,"internalType":"address"},{"name":"spender","type":"address","indexed":true,"internalType":"address"},{"name":"amount","type":"uint256","indexed":false,"internalType":"uint256"}],"anonymous":false},{"type":"event","name":"OwnershipTransferStarted","inputs":[{"name":"previousOwner","type":"address","indexed":true,"internalType":"address"},{"name":"newOwner","type":"address","indexed":true,"internalType":"address"}],"anonymous":false},{"type":"event","name":"OwnershipTransferred","inputs":[{"name":"previousOwner","type":"address","indexed":true,"internalType":"address"},{"name":"newOwner","type":"address","indexed":true,"internalType":"address"}],"anonymous":false},{"type":"event","name":"Transfer","inputs":[{"name":"from","type":"address","indexed":true,"internalType":"address"},{"name":"to","type":"address","indexed":true,"internalType":"address"},{"name":"amount","type":"uint256","indexed":false,"internalType":"uint256"}],"anonymous":false}],"bytecode":{"object":"0x60a03461023d57601f610b0f38819003918201601f191683019291906001600160401b0384118385101761024157816060928492604096875283398101031261023d5780516001600160a01b038116919082900361023d57602090838282015191015183156101f9575f80546001600160a01b0319168517815585519085907f8be0079c531659141344cd1fd0a4f28419497f9722a3daafe3b4186f6b6457e08180a381156101c55750808211610177576080526002546100c08282610255565b608051106101335791816100f67fddf252ad1be2c89b69c2b068fc378daa952ba7f163c4a11628f55a4df523b3ef935f95610255565b6002558484526003825285842061010e828254610255565b90558551908152a351610898908161027782396080518181816103e201526104a80152f35b845162461bcd60e51b815260048101849052601360248201527f45524332303a20636170206578636565646564000000000000000000000000006044820152606490fd5b845162461bcd60e51b815260048101849052602160248201527f45524332303a20696e697469616c20737570706c7920657863656564732063616044820152600760fc1b6064820152608490fd5b62461bcd60e51b815260048101849052600f60248201526e045524332303a207a65726f2063617608c1b6044820152606490fd5b845162461bcd60e51b815260048101849052601360248201527f4f776e61626c653a207a65726f206f776e6572000000000000000000000000006044820152606490fd5b5f80fd5b634e487b7160e01b5f52604160045260245ffd5b9190820180921161026257565b634e487b7160e01b5f52601160045260245ffdfe608060409080825260049081361015610016575f80fd5b5f3560e01c90816306fdde031461062a57508063095ea7b3146105bb57806318160ddd1461059d57806323b872dd146104e6578063313ce567146104cb578063355274ea1461049157806340c10f191461038e57806370a082311461035757806379ba5097146102a65780638da5cb5b1461027f57806395d89b411461021a578063a9059cbb146101ea578063dd62ed3e1461019f578063e30c3978146101775763f2fde38b146100c5575f80fd5b34610173576020366003190112610173576100de6106bf565b5f546001600160a01b0390811692916100f833851461070c565b1692831561013a575050600180546001600160a01b031916831790557f38d16b8cac22d99fc7c124b9cd0de2d3fa1faef420bfe791d8c362d765e227005f80a3005b906020606492519162461bcd60e51b8352820152601360248201527227bbb730b136329d103d32b9379037bbb732b960691b6044820152fd5b5f80fd5b8234610173575f3660031901126101735760015490516001600160a01b039091168152602090f35b5090346101735780600319360112610173576020916101bc6106bf565b6101c46106d5565b6001600160a01b039182165f908152928552838320911682528352819020549051908152f35b82346101735780600319360112610173576020906102136102096106bf565b6024359033610797565b5160018152f35b509034610173575f3660031901126101735780519080820182811067ffffffffffffffff82111761026c576102689350815260058252644152454e4160d81b60208301525191829182610678565b0390f35b604184634e487b7160e01b5f525260245ffd5b8234610173575f366003190112610173575f5490516001600160a01b039091168152602090f35b509034610173575f366003190112610173576001546001600160a01b03929091838316919033839003610314575050805f549384167f8be0079c531659141344cd1fd0a4f28419497f9722a3daafe3b4186f6b6457e05f80a36001600160a01b0319928316175f5516600155005b906020606492519162461bcd60e51b8352820152601a60248201527f4f776e61626c653a206e6f742070656e64696e67206f776e65720000000000006044820152fd5b8234610173576020366003190112610173576020906001600160a01b0361037c6106bf565b165f5260038252805f20549051908152f35b5090346101735780600319360112610173576103a86106bf565b5f5460243592916001600160a01b03916103c5908316331461070c565b16926103d284151561074d565b600254906103e0848361078a565b7f0000000000000000000000000000000000000000000000000000000000000000106104585750827fddf252ad1be2c89b69c2b068fc378daa952ba7f163c4a11628f55a4df523b3ef926104375f9560209461078a565b6002558585526003835280852061044f83825461078a565b905551908152a3005b606490602084519162461bcd60e51b83528201526013602482015272115490cc8c0e8818d85c08195e18d959591959606a1b6044820152fd5b8234610173575f36600319011261017357602090517f00000000000000000000000000000000000000000000000000000000000000008152f35b8234610173575f366003190112610173576020905160128152f35b509034610173576060366003190112610173576105016106bf565b9061050a6106d5565b6044359060018060a01b03841693845f52602094868652845f20335f528652845f205484811061055a5796610544856102139798996106eb565b915f528752855f20335f528752855f2055610797565b855162461bcd60e51b8152808901889052601d60248201527f45524332303a20696e73756666696369656e7420616c6c6f77616e63650000006044820152606490fd5b8234610173575f366003190112610173576020906002549051908152f35b5090346101735780600319360112610173576020916105d86106bf565b9060243590335f528452825f209160018060a01b031691825f52845280835f205582519081527f8c5be1e5ebec7d5bd14f71427d1e84f3dd0314c0f7b2291e5b200ac8c7c3b925843392a35160018152f35b90508234610173575f3660031901126101735780820182811067ffffffffffffffff82111761026c5761026893508152600b82526a20b932b730902a37b5b2b760a91b602083015251918291825b602080825282518183018190529093925f5b8281106106ab57505060409293505f838284010152601f8019910116010190565b81810186015184820160400152850161068a565b600435906001600160a01b038216820361017357565b602435906001600160a01b038216820361017357565b919082039182116106f857565b634e487b7160e01b5f52601160045260245ffd5b1561071357565b60405162461bcd60e51b815260206004820152601260248201527127bbb730b136329d103737ba1037bbb732b960711b6044820152606490fd5b1561075457565b60405162461bcd60e51b815260206004820152600e60248201526d45524332303a207a65726f20746f60901b6044820152606490fd5b919082018092116106f857565b6001600160a01b039182169291906107b084151561074d565b1690815f52600360205260405f205481811061081d57816107f47fddf252ad1be2c89b69c2b068fc378daa952ba7f163c4a11628f55a4df523b3ef936020936106eb565b845f526003835260405f2055845f5260405f2061081282825461078a565b9055604051908152a3565b60405162461bcd60e51b815260206004820152601b60248201527f45524332303a20696e73756666696369656e742062616c616e636500000000006044820152606490fdfea26469706673582212209ef3f64c1dd8bab4b2aae7e427c3343a52f7e416d5660b7747a7f6c512e79bad64736f6c63430008180033","linkReferences":{}},"methodIdentifiers":{"acceptOwnership()":"79ba5097","allowance(address,address)":"dd62ed3e","approve(address,uint256)":"095ea7b3","balanceOf(address)":"70a08231","cap()":"355274ea","decimals()":"313ce567","mint(address,uint256)":"40c10f19","name()":"06fdde03","owner()":"8da5cb5b","pendingOwner()":"e30c3978","symbol()":"95d89b41","totalSupply()":"18160ddd","transfer(address,uint256)":"a9059cbb","transferFrom(address,address,uint256)":"23b872dd","transferOwnership(address)":"f2fde38b"},"id":39}