{"abi":[{"type":"constructor","inputs":[],"stateMutability":"nonpayable"},{"type":"function","name":"UPGRADE_INTERFACE_VERSION","inputs":[],"outputs":[{"name":"","type":"string","internalType":"string"}],"stateMutability":"view"},{"type":"function","name":"agentNFA","inputs":[],"outputs":[{"name":"","type":"address","internalType":"contract IAgentNFA"}],"stateMutability":"view"},{"type":"function","name":"initialize","inputs":[{"name":"vaultAddress","type":"address","internalType":"address"},{"name":"initialOwner","type":"address","internalType":"address"}],"outputs":[],"stateMutability":"nonpayable"},{"type":"function","name":"lockVault","inputs":[],"outputs":[],"stateMutability":"nonpayable"},{"type":"function","name":"owner","inputs":[],"outputs":[{"name":"","type":"address","internalType":"address"}],"stateMutability":"view"},{"type":"function","name":"pause","inputs":[],"outputs":[],"stateMutability":"nonpayable"},{"type":"function","name":"paused","inputs":[],"outputs":[{"name":"","type":"bool","internalType":"bool"}],"stateMutability":"view"},{"type":"function","name":"proxiableUUID","inputs":[],"outputs":[{"name":"","type":"bytes32","internalType":"bytes32"}],"stateMutability":"view"},{"type":"function","name":"resultsBySeason","inputs":[{"name":"","type":"bytes32","internalType":"bytes32"}],"outputs":[{"name":"leaderboardHash","type":"bytes32","internalType":"bytes32"},{"name":"merkleRoot","type":"bytes32","internalType":"bytes32"},{"name":"settledAt","type":"uint64","internalType":"uint64"},{"name":"exists","type":"bool","internalType":"bool"}],"stateMutability":"view"},{"type":"function","name":"setAgentNFA","inputs":[{"name":"nfaAddress","type":"address","internalType":"address"}],"outputs":[],"stateMutability":"nonpayable"},{"type":"function","name":"setVault","inputs":[{"name":"vaultAddress","type":"address","internalType":"address"}],"outputs":[],"stateMutability":"nonpayable"},{"type":"function","name":"submitSeasonResult","inputs":[{"name":"seasonId","type":"string","internalType":"string"},{"name":"leaderboardHash","type":"bytes32","internalType":"bytes32"},{"name":"merkleRoot","type":"bytes32","internalType":"bytes32"},{"name":"agentIds","type":"string[]","internalType":"string[]"},{"name":"weightsWad","type":"uint256[]","internalType":"uint256[]"},{"name":"reputationDeltas","type":"uint256[]","internalType":"uint256[]"}],"outputs":[],"stateMutability":"nonpayable"},{"type":"function","name":"transferOwnership","inputs":[{"name":"newOwner","type":"address","internalType":"address"}],"outputs":[],"stateMutability":"nonpayable"},{"type":"function","name":"unpause","inputs":[],"outputs":[],"stateMutability":"nonpayable"},{"type":"function","name":"upgradeToAndCall","inputs":[{"name":"newImplementation","type":"address","internalType":"address"},{"name":"data","type":"bytes","internalType":"bytes"}],"outputs":[],"stateMutability":"payable"},{"type":"function","name":"vault","inputs":[],"outputs":[{"name":"","type":"address","internalType":"contract IArenaVault"}],"stateMutability":"view"},{"type":"function","name":"vaultLocked","inputs":[],"outputs":[{"name":"","type":"bool","internalType":"bool"}],"stateMutability":"view"},{"type":"event","name":"AgentNFAUpdated","inputs":[{"name":"agentNFA","type":"address","indexed":true,"internalType":"address"}],"anonymous":false},{"type":"event","name":"Initialized","inputs":[{"name":"version","type":"uint64","indexed":false,"internalType":"uint64"}],"anonymous":false},{"type":"event","name":"OwnershipTransferred","inputs":[{"name":"previousOwner","type":"address","indexed":true,"internalType":"address"},{"name":"newOwner","type":"address","indexed":true,"internalType":"address"}],"anonymous":false},{"type":"event","name":"Paused","inputs":[{"name":"by","type":"address","indexed":true,"internalType":"address"}],"anonymous":false},{"type":"event","name":"SeasonResultSubmitted","inputs":[{"name":"seasonId","type":"string","indexed":true,"internalType":"string"},{"name":"leaderboardHash","type":"bytes32","indexed":true,"internalType":"bytes32"},{"name":"merkleRoot","type":"bytes32","indexed":true,"internalType":"bytes32"}],"anonymous":false},{"type":"event","name":"Unpaused","inputs":[{"name":"by","type":"address","indexed":true,"internalType":"address"}],"anonymous":false},{"type":"event","name":"Upgraded","inputs":[{"name":"implementation","type":"address","indexed":true,"internalType":"address"}],"anonymous":false},{"type":"event","name":"VaultLocked","inputs":[{"name":"by","type":"address","indexed":true,"internalType":"address"}],"anonymous":false},{"type":"event","name":"VaultUpdated","inputs":[{"name":"vault","type":"address","indexed":true,"internalType":"address"}],"anonymous":false},{"type":"error","name":"AddressEmptyCode","inputs":[{"name":"target","type":"address","internalType":"address"}]},{"type":"error","name":"ERC1967InvalidImplementation","inputs":[{"name":"implementation","type":"address","internalType":"address"}]},{"type":"error","name":"ERC1967NonPayable","inputs":[]},{"type":"error","name":"FailedCall","inputs":[]},{"type":"error","name":"InvalidInitialization","inputs":[]},{"type":"error","name":"NotInitializing","inputs":[]},{"type":"error","name":"UUPSUnauthorizedCallContext","inputs":[]},{"type":"error","name":"UUPSUnsupportedProxiableUUID","inputs":[{"name":"slot","type":"bytes32","internalType":"bytes32"}]}],"bytecode":{"object":"0x60a080604052346100cc57306080527ff0c57e16840df040f15088dc2f81fe391c3923bec73e23a9662efc9c229c6a009081549060ff8260401c166100bd57506001600160401b036002600160401b031982821601610078575b6040516111fe90816100d18239608051818181610a9c0152610b540152f35b6001600160401b031990911681179091556040519081527fc7f505b2f371ae2175ee4913f4499e1f2633a7b5936321eed1cdaeb6115181d290602090a15f8080610059565b63f92ee8a960e01b8152600490fd5b5f80fdfe6080806040526004361015610012575f80fd5b5f905f3560e01c9081631d2005c314610f3d575080633f4ba83a14610ee7578063485cc95514610d5857806348bdd19814610cf95780634f1ef28614610b0657806352d1902d14610a8a5780635c975abb14610a665780636817031b146109a05780638456cb59146109415780638da5cb5b1461091a57806393a25521146102f2578063ad3cb1cc1461026f578063af9ce20514610246578063e889cc49146101ed578063f2fde38b14610178578063f8a56a87146101045763fbfa77cf146100d9575f80fd5b346101015780600319360112610101576001546040516001600160a01b039091168152602090f35b80fd5b50346101015760203660031901126101015761011e610f5e565b81546001600160a01b039190610137908316331461103e565b16806bffffffffffffffffffffffff60a01b60025416176002557f58dce2e9649ca8b0343f06c4b673786b12e1cc9560db1709e6ed4c52ba2df0f98280a280f35b503461010157602036600319011261010157610192610f5e565b81546001600160a01b03808216926101ab33851461103e565b1680926101b98215156110cb565b7f8be0079c531659141344cd1fd0a4f28419497f9722a3daafe3b4186f6b6457e08580a36001600160a01b03191617815580f35b5034610101576020366003190112610101576040608091600435815260036020522060ff815491600260018201549101549060405193845260208401526001600160401b038116604084015260401c1615156060820152f35b50346101015780600319360112610101576002546040516001600160a01b039091168152602090f35b5034610101578060031936011261010157604051604081018181106001600160401b038211176102de576102d09160409182526005815260208101640352e302e360dc1b81528251938492602084525180928160208601528585019061101d565b601f01601f19168101030190f35b634e487b7160e01b5f52604160045260245ffd5b50346107845760c0366003190112610784576004356001600160401b0381116107845736602382011215610784576001600160401b0381600401351161078457366024826004013583010111610784576064356001600160401b03811161078457610361903690600401610fed565b906084356001600160401b03811161078457610381903690600401610fed565b9160a4356001600160401b038111610784576103a1903690600401610fed565b5f54909491939060ff906103bf336001600160a01b0383161461103e565b60a01c166108dd57818603610898578415801561088f575b15610838576103ee36886004013560248a01610fa8565b6040516104186020828161040b818301968781519384920161101d565b8101038084520182610f87565b519020805f52600360205260ff600260405f20015460401c166107e357604051908160808101106001600160401b036080840111176102de5760808201604052602435825260443560208301526001600160401b0342166040830152600160608301525f526003602052600260405f20825181556020830151600182015501906001600160401b0360408201511668ff000000000000000060608454930151151560401b169168ffffffffffffffffff19161717905560018060a01b036001541691823b1561078457604051926389dd86c760e01b84526060600485015261050b606485018a6004013560248c01611117565b91600319858403016024860152888352602083019260208a60051b8201019387915f5b8c811061078857505050508483036003190160448601528083526001600160fb1b038111610784575f60208682968196829560051b809285830137010301925af1801561077957610766575b506002546001600160a01b031615158061075d575b6105e1575b85856040519080600401356024820183376004013581018281526044359180602435920390207f87d50332e94acb2a2299d1bc362ff29ebd76665edd4c93575d1d39b4689d50818480a480f35b855b8481106105f05750610594565b8060051b820135601e19833603018112156107595782018035906001600160401b0382116107425760200190803603821361074257610648602060405183819483830196873781018c83820152038084520182610f87565b5190206002546040516347a3752360e11b815260048101929092526001600160a01b031690602081602481855afa90811561074e578991610718575b5080610695575b50506001016105e3565b8583101561070457908891813b15610700578291604483926040519485938492630675f76360e01b845260048401528860051b8b013560248401525af180156106f5571561068b576106e690610f74565b6106f157865f61068b565b8680fd5b6040513d84823e3d90fd5b8280fd5b634e487b7160e01b89526032600452602489fd5b90506020813d602011610746575b8161073360209383610f87565b8101031261074257515f610684565b8880fd5b3d9150610726565b6040513d8b823e3d90fd5b8780fd5b5083831461058f565b610771919650610f74565b5f945f61057a565b6040513d5f823e3d90fd5b5f80fd5b90919295601f19838203018452601e198a36030187351215610784578987350190602082359201916001600160401b038111610784578036038313610784576107d76020928392600195611117565b9801940192910161052e565b60405162461bcd60e51b815260206004820152602760248201527f536561736f6e536574746c65723a20736561736f6e20616c7265616479207375604482015266189b5a5d1d195960ca1b6064820152608490fd5b60405162461bcd60e51b815260206004820152602960248201527f536561736f6e536574746c65723a2072657075746174696f6e206c656e677468604482015268040dad2e6dac2e8c6d60bb1b6064820152608490fd5b508585146103d7565b60405162461bcd60e51b815260206004820152601e60248201527f536561736f6e536574746c65723a206c656e677468206d69736d6174636800006044820152606490fd5b60405162461bcd60e51b815260206004820152601560248201527414d9585cdbdb94d95d1d1b195c8e881c185d5cd959605a1b6044820152606490fd5b34610784575f366003190112610784575f546040516001600160a01b039091168152602090f35b34610784575f366003190112610784575f54610967336001600160a01b0383161461103e565b60ff60a01b1916600160a01b175f90815533907f62e78cea01bee320cd4e420270b5ea74000d11b0c9f74754ebdbfc544b05a2589080a2005b34610784576020366003190112610784576109b9610f5e565b5f546001600160a01b03919060ff906109d5338583161461103e565b60a81c16610a2157166109e981151561107f565b600180546001600160a01b031916821790557f161584aed96e7f34998117c9ad67e2d21ff46d2a42775c22b11ed282f3c7b2cd5f80a2005b60405162461bcd60e51b815260206004820152601b60248201527f536561736f6e536574746c65723a207661756c74206c6f636b656400000000006044820152606490fd5b34610784575f36600319011261078457602060ff5f5460a01c166040519015158152f35b34610784575f366003190112610784577f00000000000000000000000000000000000000000000000000000000000000006001600160a01b03163003610af45760206040517f360894a13ba1a3210667c828492db98dca3e2076cc3735a920a3ca505d382bbc8152f35b60405163703e46dd60e11b8152600490fd5b604036600319011261078457610b1a610f5e565b6024356001600160401b038111610784573660238201121561078457610b4a903690602481600401359101610fa8565b6001600160a01b037f00000000000000000000000000000000000000000000000000000000000000008116308114908115610ccb575b50610af457610b93815f5416331461103e565b8216916040516352d1902d60e01b8152602081600481875afa5f9181610c97575b50610bd257604051634c9c8ce360e01b815260048101859052602490fd5b7f360894a13ba1a3210667c828492db98dca3e2076cc3735a920a3ca505d382bbc90818103610c7f5750813b15610c665780546001600160a01b03191684179055604051927fbc7cd75a20ee27fd9adebab32041f755214dbc6bffa90cc0225b39da2e5c2d3b5f80a2815115610c4e57610c4c9250611137565b005b505034610c5757005b63b398979f60e01b8152600490fd5b604051634c9c8ce360e01b815260048101859052602490fd5b60249060405190632a87526960e21b82526004820152fd5b9091506020813d602011610cc3575b81610cb360209383610f87565b8101031261078457519085610bb4565b3d9150610ca6565b9050817f360894a13ba1a3210667c828492db98dca3e2076cc3735a920a3ca505d382bbc5416141584610b80565b34610784575f366003190112610784575f54610d1f336001600160a01b0383161461103e565b60ff60a81b1916600160a81b175f90815533907feccf7e8f0affb71e7e2c9efed411c7b23b8ed491596e06c0a2b58e7c167e44d69080a2005b3461078457604036600319011261078457610d71610f5e565b6001600160a01b036024358181169290839003610784577ff0c57e16840df040f15088dc2f81fe391c3923bec73e23a9662efc9c229c6a009182549160ff8360401c1615926001600160401b03811680159081610edf575b6001149081610ed5575b159081610ecc575b50610eba5767ffffffffffffffff198116600117855583610e9b575b5016610e0481151561107f565b610e0f8415156110cb565b60405193805f7f8be0079c531659141344cd1fd0a4f28419497f9722a3daafe3b4186f6b6457e08180a36bffffffffffffffffffffffff60a01b90815f5416175f556001541617600155610e5f57005b805468ff000000000000000019169055600181527fc7f505b2f371ae2175ee4913f4499e1f2633a7b5936321eed1cdaeb6115181d290602090a1005b68ffffffffffffffffff19166801000000000000000117845585610df7565b60405163f92ee8a960e01b8152600490fd5b90501587610ddb565b303b159150610dd3565b859150610dc9565b34610784575f366003190112610784575f54610f0d336001600160a01b0383161461103e565b60ff60a01b19165f55337f5db9ee0a495bf2e6ff9c91a7834c1ba4fdd244a5e8aa4e537bd38aeae4b073aa5f80a2005b34610784575f3660031901126107845760209060ff5f5460a81c1615158152f35b600435906001600160a01b038216820361078457565b6001600160401b0381116102de57604052565b90601f801991011681019081106001600160401b038211176102de57604052565b9291926001600160401b0382116102de5760405191610fd1601f8201601f191660200184610f87565b829481845281830111610784578281602093845f960137010152565b9181601f84011215610784578235916001600160401b038311610784576020808501948460051b01011161078457565b5f5b83811061102e5750505f910152565b818101518382015260200161101f565b1561104557565b60405162461bcd60e51b815260206004820152601260248201527127bbb730b136329d103737ba1037bbb732b960711b6044820152606490fd5b1561108657565b60405162461bcd60e51b815260206004820152601960248201527f536561736f6e536574746c65723a207a65726f207661756c74000000000000006044820152606490fd5b156110d257565b60405162461bcd60e51b815260206004820152601960248201527f536561736f6e536574746c65723a207a65726f206f776e6572000000000000006044820152606490fd5b908060209392818452848401375f828201840152601f01601f1916010190565b905f8091602081519101845af480806111b5575b1561116b5750506040513d81523d5f602083013e60203d82010160405290565b1561119257604051639996b31560e01b81526001600160a01b039091166004820152602490fd5b3d156111a3576040513d5f823e3d90fd5b60405163d6bda27560e01b8152600490fd5b503d15158061114b5750813b151561114b56fea2646970667358221220d09cd2d1b4f0a2b0c51910307a1c1f2ff70ff22281742b0ea374aec8952ff37f64736f6c63430008180033","linkReferences":{}},"methodIdentifiers":{"UPGRADE_INTERFACE_VERSION()":"ad3cb1cc","agentNFA()":"af9ce205","initialize(address,address)":"485cc955","lockVault()":"48bdd198","owner()":"8da5cb5b","pause()":"8456cb59","paused()":"5c975abb","proxiableUUID()":"52d1902d","resultsBySeason(bytes32)":"e889cc49","setAgentNFA(address)":"f8a56a87","setVault(address)":"6817031b","submitSeasonResult(string,bytes32,bytes32,string[],uint256[],uint256[])":"93a25521","transferOwnership(address)":"f2fde38b","unpause()":"3f4ba83a","upgradeToAndCall(address,bytes)":"4f1ef286","vault()":"fbfa77cf","vaultLocked()":"1d2005c3"},"id":43}