{"abi":[{"type":"constructor","inputs":[{"name":"token_","type":"address","internalType":"address"},{"name":"treasury_","type":"address","internalType":"address"},{"name":"owner_","type":"address","internalType":"address"}],"stateMutability":"nonpayable"},{"type":"function","name":"acceptOwnership","inputs":[],"outputs":[],"stateMutability":"nonpayable"},{"type":"function","name":"deliver","inputs":[{"name":"taskId","type":"uint256","internalType":"uint256"},{"name":"resultHash","type":"bytes32","internalType":"bytes32"}],"outputs":[],"stateMutability":"nonpayable"},{"type":"function","name":"feeRateBps","inputs":[],"outputs":[{"name":"","type":"uint256","internalType":"uint256"}],"stateMutability":"view"},{"type":"function","name":"fund","inputs":[{"name":"taker","type":"address","internalType":"address"},{"name":"amount","type":"uint256","internalType":"uint256"},{"name":"deadline","type":"uint64","internalType":"uint64"},{"name":"taskHash","type":"bytes32","internalType":"bytes32"}],"outputs":[{"name":"taskId","type":"uint256","internalType":"uint256"}],"stateMutability":"nonpayable"},{"type":"function","name":"getTask","inputs":[{"name":"taskId","type":"uint256","internalType":"uint256"}],"outputs":[{"name":"","type":"tuple","internalType":"struct SimpleTaskEscrow.Task","components":[{"name":"poster","type":"address","internalType":"address"},{"name":"taker","type":"address","internalType":"address"},{"name":"amount","type":"uint256","internalType":"uint256"},{"name":"taskHash","type":"bytes32","internalType":"bytes32"},{"name":"resultHash","type":"bytes32","internalType":"bytes32"},{"name":"deadline","type":"uint64","internalType":"uint64"},{"name":"releaseAfter","type":"uint64","internalType":"uint64"},{"name":"status","type":"uint8","internalType":"enum SimpleTaskEscrow.TaskStatus"}]}],"stateMutability":"view"},{"type":"function","name":"maxDeadlineSecs","inputs":[],"outputs":[{"name":"","type":"uint256","internalType":"uint256"}],"stateMutability":"view"},{"type":"function","name":"maxTaskAmount","inputs":[],"outputs":[{"name":"","type":"uint256","internalType":"uint256"}],"stateMutability":"view"},{"type":"function","name":"minTaskAmount","inputs":[],"outputs":[{"name":"","type":"uint256","internalType":"uint256"}],"stateMutability":"view"},{"type":"function","name":"nextTaskId","inputs":[],"outputs":[{"name":"","type":"uint256","internalType":"uint256"}],"stateMutability":"view"},{"type":"function","name":"owner","inputs":[],"outputs":[{"name":"","type":"address","internalType":"address"}],"stateMutability":"view"},{"type":"function","name":"paused","inputs":[],"outputs":[{"name":"","type":"bool","internalType":"bool"}],"stateMutability":"view"},{"type":"function","name":"pendingOwner","inputs":[],"outputs":[{"name":"","type":"address","internalType":"address"}],"stateMutability":"view"},{"type":"function","name":"refund","inputs":[{"name":"taskId","type":"uint256","internalType":"uint256"}],"outputs":[],"stateMutability":"nonpayable"},{"type":"function","name":"release","inputs":[{"name":"taskId","type":"uint256","internalType":"uint256"}],"outputs":[],"stateMutability":"nonpayable"},{"type":"function","name":"releaseDelaySecs","inputs":[],"outputs":[{"name":"","type":"uint256","internalType":"uint256"}],"stateMutability":"view"},{"type":"function","name":"setFeeRateBps","inputs":[{"name":"bps","type":"uint256","internalType":"uint256"}],"outputs":[],"stateMutability":"nonpayable"},{"type":"function","name":"setMaxTaskAmount","inputs":[{"name":"amount","type":"uint256","internalType":"uint256"}],"outputs":[],"stateMutability":"nonpayable"},{"type":"function","name":"setMinTaskAmount","inputs":[{"name":"amount","type":"uint256","internalType":"uint256"}],"outputs":[],"stateMutability":"nonpayable"},{"type":"function","name":"setPaused","inputs":[{"name":"paused_","type":"bool","internalType":"bool"}],"outputs":[],"stateMutability":"nonpayable"},{"type":"function","name":"setReleaseDelaySecs","inputs":[{"name":"secs","type":"uint256","internalType":"uint256"}],"outputs":[],"stateMutability":"nonpayable"},{"type":"function","name":"setTreasury","inputs":[{"name":"treasury_","type":"address","internalType":"address"}],"outputs":[],"stateMutability":"nonpayable"},{"type":"function","name":"taskCount","inputs":[],"outputs":[{"name":"","type":"uint256","internalType":"uint256"}],"stateMutability":"view"},{"type":"function","name":"tasks","inputs":[{"name":"","type":"uint256","internalType":"uint256"}],"outputs":[{"name":"poster","type":"address","internalType":"address"},{"name":"taker","type":"address","internalType":"address"},{"name":"amount","type":"uint256","internalType":"uint256"},{"name":"taskHash","type":"bytes32","internalType":"bytes32"},{"name":"resultHash","type":"bytes32","internalType":"bytes32"},{"name":"deadline","type":"uint64","internalType":"uint64"},{"name":"releaseAfter","type":"uint64","internalType":"uint64"},{"name":"status","type":"uint8","internalType":"enum SimpleTaskEscrow.TaskStatus"}],"stateMutability":"view"},{"type":"function","name":"token","inputs":[],"outputs":[{"name":"","type":"address","internalType":"contract IArenaToken"}],"stateMutability":"view"},{"type":"function","name":"transferOwnership","inputs":[{"name":"newOwner","type":"address","internalType":"address"}],"outputs":[],"stateMutability":"nonpayable"},{"type":"function","name":"treasury","inputs":[],"outputs":[{"name":"","type":"address","internalType":"address"}],"stateMutability":"view"},{"type":"function","name":"usedResultHashes","inputs":[{"name":"","type":"bytes32","internalType":"bytes32"}],"outputs":[{"name":"","type":"bool","internalType":"bool"}],"stateMutability":"view"},{"type":"event","name":"OwnershipTransferStarted","inputs":[{"name":"previousOwner","type":"address","indexed":true,"internalType":"address"},{"name":"newOwner","type":"address","indexed":true,"internalType":"address"}],"anonymous":false},{"type":"event","name":"OwnershipTransferred","inputs":[{"name":"previousOwner","type":"address","indexed":true,"internalType":"address"},{"name":"newOwner","type":"address","indexed":true,"internalType":"address"}],"anonymous":false},{"type":"event","name":"TaskDelivered","inputs":[{"name":"taskId","type":"uint256","indexed":true,"internalType":"uint256"},{"name":"taker","type":"address","indexed":true,"internalType":"address"},{"name":"resultHash","type":"bytes32","indexed":false,"internalType":"bytes32"}],"anonymous":false},{"type":"event","name":"TaskFunded","inputs":[{"name":"taskId","type":"uint256","indexed":true,"internalType":"uint256"},{"name":"poster","type":"address","indexed":true,"internalType":"address"},{"name":"taker","type":"address","indexed":true,"internalType":"address"},{"name":"taskHash","type":"bytes32","indexed":false,"internalType":"bytes32"},{"name":"amount","type":"uint256","indexed":false,"internalType":"uint256"},{"name":"deadline","type":"uint64","indexed":false,"internalType":"uint64"}],"anonymous":false},{"type":"event","name":"TaskRefunded","inputs":[{"name":"taskId","type":"uint256","indexed":true,"internalType":"uint256"},{"name":"poster","type":"address","indexed":true,"internalType":"address"},{"name":"amount","type":"uint256","indexed":false,"internalType":"uint256"}],"anonymous":false},{"type":"event","name":"TaskReleased","inputs":[{"name":"taskId","type":"uint256","indexed":true,"internalType":"uint256"},{"name":"taker","type":"address","indexed":true,"internalType":"address"},{"name":"net","type":"uint256","indexed":false,"internalType":"uint256"},{"name":"fee","type":"uint256","indexed":false,"internalType":"uint256"}],"anonymous":false}],"bytecode":{"object":"0x60a034620001de57601f620016a838819003918201601f191683019291906001600160401b03841183851017620001e2578160609284926040968752833981010312620001de576200005181620001f6565b826200006060208401620001f6565b926001600160a01b03918291620000789101620001f6565b169283156200019a578160018060a01b03199385855f5416175f558651955f7f8be0079c531659141344cd1fd0a4f28419497f9722a3daafe3b4186f6b6457e08180a361012c60035569021e19e0c9bab2400000600455670de0b6b3a764000060055562093a80600655611c206007556001600955169384156200016b575016918215620001375760805260025416176002555161149c90816200020c823960805181818161017b01528181610a5101528181610d97015261109e0152f35b835162461bcd60e51b815260206004820152600d60248201526c7a65726f20747265617375727960981b6044820152606490fd5b62461bcd60e51b815260206004820152600a6024820152693d32b937903a37b5b2b760b11b6044820152606490fd5b845162461bcd60e51b815260206004820152601360248201527f4f776e61626c653a207a65726f206f776e6572000000000000000000000000006044820152606490fd5b5f80fd5b634e487b7160e01b5f52604160045260245ffd5b51906001600160a01b0382168203620001de5756fe604060808152600480361015610013575f80fd5b5f3560e01c90816316c38b3c146112e75781631d65e77e146111ac578163278ecde114610ffb5781632c26c86314610fdd5781632f26efa114610fb257816337bdc99b14610ccc5781633b3c386f146108935781633f21121a146108755781634c12b7e0146108575781635c975abb1461083457816361d027b31461080c57816379ba50971461075c57816388c7fff31461073e5781638d977672146106aa5781638da5cb5b14610683578163b6cb58a514610646578163b77a95481461062a578163bf1721f1146105be578163d4e01bcc14610593578163d9b42a7f146103a0578163e30c397814610378578163f0f44260146102f5578163f241f32b14610286578163f2fde38b146101d6578163f861fd49146101aa57508063fc0c546a146101675763fdc3d8d714610146575f80fd5b34610163575f366003190112610163576020906009549051908152f35b5f80fd5b5034610163575f36600319011261016357517f00000000000000000000000000000000000000000000000000000000000000006001600160a01b03168152602090f35b823461016357602036600319011261016357602091355f52600b825260ff815f20541690519015158152f35b905034610163576020366003190112610163576101f161134a565b5f546001600160a01b03908116929161020b338514611360565b1692831561024d575050600180546001600160a01b031916831790557f38d16b8cac22d99fc7c124b9cd0de2d3fa1faef420bfe791d8c362d765e227005f80a3005b906020606492519162461bcd60e51b8352820152601360248201527227bbb730b136329d103d32b9379037bbb732b960691b6044820152fd5b905034610163576020366003190112610163578035916102b060018060a01b035f54163314611360565b62093a8083116102c1576007839055005b906020606492519162461bcd60e51b8352820152600e60248201526d64656c617920746f6f206c6f6e6760901b6044820152fd5b9050346101635760203660031901126101635761031061134a565b5f546001600160a01b0391906103299083163314611360565b1691821561034557600280546001600160a01b03191684179055005b906020606492519162461bcd60e51b8352820152600d60248201526c7a65726f20747265617375727960981b6044820152fd5b8234610163575f3660031901126101635760015490516001600160a01b039091168152602090f35b82346101635780600319360112610163578135602492833592825f52602091600a8352815f2090600582019182549760ff8960801c1683811015610580576103e890156113f4565b60018201546001600160a01b031633036105535767ffffffffffffffff80991642116105205787156104f057875f52600b865260ff855f2054166104ba575096866104a09281997fb0acd737748d89fbda38a623192607ecbe085e9cbdea13e1fc8178602ea790e298995f52600b8852865f20600160ff19825416179055015561047460075442611445565b83546fffffffffffffffff00000000000000001916911660401b67ffffffffffffffff60401b16178255565b805460ff60801b1916600160801b179055519384523393a3005b8260126064928888519362461bcd60e51b8552840152820152711c995cdd5b1d081a185cda081c995d5cd95960721b6044820152fd5b82600c6064928888519362461bcd60e51b85528401528201526b195b5c1d1e481c995cdd5b1d60a21b6044820152fd5b82600f6064928888519362461bcd60e51b85528401528201526e191958591b1a5b99481c185cdcd959608a1b6044820152fd5b8260096064928888519362461bcd60e51b8552840152820152683737ba103a30b5b2b960b91b6044820152fd5b50634e487b7160e01b5f90815260218452fd5b34610163576020366003190112610163576105b860018060a01b035f54163314611360565b80359055005b905034610163576020366003190112610163578035916105e860018060a01b035f54163314611360565b6103e883116105f8576003839055005b906020606492519162461bcd60e51b8352820152600c60248201526b0cccaca40e8dede40d0d2ced60a31b6044820152fd5b8234610163575f36600319011261016357602091549051908152f35b8234610163575f366003190112610163576009545f19810191908211610670576020925051908152f35b601183634e487b7160e01b5f525260245ffd5b8234610163575f366003190112610163575f5490516001600160a01b039091168152602090f35b82346101635760203660031901126101635761073c8261010093355f52600a602052825f209260018060a01b0393848154169460018201541691600282015491600560038201549582015491015494859367ffffffffffffffff958451998a5260208a0152838901526060880152608087015282821660a08701521c1660c084015260ff60e084019160801c16611329565bf35b8234610163575f366003190112610163576020906003549051908152f35b8234610163575f366003190112610163576001546001600160a01b039290918383169190338390036107c9575050805f549384167f8be0079c531659141344cd1fd0a4f28419497f9722a3daafe3b4186f6b6457e05f80a36001600160a01b0319928316175f5516600155005b906020606492519162461bcd60e51b8352820152601a60248201527f4f776e61626c653a206e6f742070656e64696e67206f776e65720000000000006044820152fd5b8234610163575f3660031901126101635760025490516001600160a01b039091168152602090f35b8234610163575f3660031901126101635760209060ff6008541690519015158152f35b8234610163575f366003190112610163576020906005549051908152f35b8234610163575f366003190112610163576020906007549051908152f35b905034610163576080366003190112610163576108ae61134a565b916044359267ffffffffffffffff928385168095036101635760ff60085416610c89576001600160a01b03918216918215610c5957338314610c245760055460243510610bee57815460243511610bb85742861115610b825761091360065442611445565b8611610b4c57600954945f198614610670575f610a00889260018901600955888160058a51610941816113a1565b3381528b602082018c81528183016024358152606084019160643583528c60808601948c865260a087019d8e5260c08701998d8b5260e088019d8e525f52600a6020525f209551166bffffffffffffffffffffffff60a01b90818754161786558d6001870192511690825416179055516002840155516003830155518a8201550195511667ffffffffffffffff198654161785555116839067ffffffffffffffff60401b82549160401b169067ffffffffffffffff60401b1916179055565b5183811015610b3957815460ff60801b191660809190911b60ff60801b1617905583516323b872dd60e01b815233838201523060248083019190915235604482015290602090829060649082905f907f0000000000000000000000000000000000000000000000000000000000000000165af1908115610b2f575f91610b00575b5015610acb575060209382519060643582526024358683015283820152837fbec09fa5a62e9316d5bd3daf7f03359c099c37d4110962e606a509beb828e3a160603393a451908152f35b606490602084519162461bcd60e51b8352820152600f60248201526e1d1c985b9cd9995c8819985a5b1959608a1b6044820152fd5b610b22915060203d602011610b28575b610b1a81836113d2565b81019061142d565b5f610a81565b503d610b10565b84513d5f823e3d90fd5b602184634e487b7160e01b5f525260245ffd5b835162461bcd60e51b8152602081840152601060248201526f3232b0b23634b732903a37b7903330b960811b6044820152606490fd5b835162461bcd60e51b8152602081840152601060248201526f191958591b1a5b99481a5b881c185cdd60821b6044820152606490fd5b835162461bcd60e51b8152602081840152601060248201526f616d6f756e7420746f6f206c6172676560801b6044820152606490fd5b835162461bcd60e51b8152602081840152601060248201526f185b5bdd5b9d081d1bdbc81cdb585b1b60821b6044820152606490fd5b835162461bcd60e51b8152602081840152600f60248201526e3837b9ba32b9101e9e903a30b5b2b960891b6044820152606490fd5b835162461bcd60e51b8152602081840152600a6024820152693d32b937903a30b5b2b960b11b6044820152606490fd5b606490602084519162461bcd60e51b8352820152601860248201527f53696d706c655461736b457363726f773a2070617573656400000000000000006044820152fd5b905034610163576020918260031936011261016357813590815f52600a8452805f2092600584019384549460ff8660801c1683811015610b3957600103610f845781546001600160a01b039690871633148015610f6e575b15610f2b5760ff60801b1916600160811b17905560028101546003549092908084029084158583049091141715610f1857612710900491828403938411610f185760010154600254855163a9059cbb60e01b8082529289166001600160a01b0381168583019081526020810188905290997f000000000000000000000000000000000000000000000000000000000000000081169493169291908b908290819060400103815f885af1908115610f0e575f91610ef1575b5015610eb65786519081526001600160a01b03909116838201908152602081018590529091899183919082905f90829060400103925af1908115610eac575f91610e8f575b5015610e5657507f566199195fc2c6b6d36e4eef7f503e805c14a71a5599ef35a5aaa96bab5580d49394958351928352820152a3005b835162461bcd60e51b81529081018790526013602482015272199959481d1c985b9cd9995c8819985a5b1959606a1b6044820152606490fd5b610ea69150883d8a11610b2857610b1a81836113d2565b5f610e20565b85513d5f823e3d90fd5b865162461bcd60e51b81528085018b905260156024820152741d185ad95c881d1c985b9cd9995c8819985a5b1959605a1b6044820152606490fd5b610f0891508b3d8d11610b2857610b1a81836113d2565b5f610ddb565b88513d5f823e3d90fd5b601182634e487b7160e01b5f525260245ffd5b845162461bcd60e51b8152808501899052601760248201527f6e6f7420706f73746572206f7220746f6f206561726c790000000000000000006044820152606490fd5b5067ffffffffffffffff81861c16421015610d24565b835162461bcd60e51b815280840188905260086024820152676e6f7420646f6e6560c01b6044820152606490fd5b3461016357602036600319011261016357610fd760018060a01b035f54163314611360565b35600555005b8234610163575f366003190112610163576020906006549051908152f35b9050346101635760208060031936011261016357813591825f52600a8252835f209360058501805460ff8160801c16848110156111995761103c90156113f4565b67ffffffffffffffff81164211156111605760ff60801b1916600360801b17905560028501549454815163a9059cbb60e01b81526001600160a01b039182168185018181526020810189905290979492869183919082905f90829060400103927f0000000000000000000000000000000000000000000000000000000000000000165af1908115611156575f91611139575b50156110ff5750519081527f098446306d18a8ba797caf5ad3be836bc7fadb0fa82d207e934992497bdeaf619190a3005b83606492519162461bcd60e51b835282015260166024820152751c99599d5b99081d1c985b9cd9995c8819985a5b195960521b6044820152fd5b6111509150853d8711610b2857610b1a81836113d2565b5f6110ce565b83513d5f823e3d90fd5b825162461bcd60e51b81528085018690526013602482015272191958591b1a5b99481b9bdd081c185cdcd959606a1b6044820152606490fd5b602185634e487b7160e01b5f525260245ffd5b905034610163576020366003190112610163575f60e083516111cd816113a1565b82815282602082015282858201528260608201528260808201528260a08201528260c0820152015280355f52600a602052815f209082519161120e836113a1565b60018060a01b0390818154168452816001820154166020850190815260028201549186860192835260038101549660608701978852600586830154926080890193845201549367ffffffffffffffff9560a0890194878716865260ff60c08b01978981871c16895260801c1660e08b0199808210156112d4575089528351995182168a5251166020890152519087015295516060860152945160808501529351811660a0840152925190921660c08201529051610100919061073c9060e0830190611329565b602190634e487b7160e01b5f525260245ffd5b3461016357602036600319011261016357358015158091036101635761131760018060a01b035f54163314611360565b60ff8019600854169116176008555f80f35b9060048210156113365752565b634e487b7160e01b5f52602160045260245ffd5b600435906001600160a01b038216820361016357565b1561136757565b60405162461bcd60e51b815260206004820152601260248201527127bbb730b136329d103737ba1037bbb732b960711b6044820152606490fd5b610100810190811067ffffffffffffffff8211176113be57604052565b634e487b7160e01b5f52604160045260245ffd5b90601f8019910116810190811067ffffffffffffffff8211176113be57604052565b156113fb57565b60405162461bcd60e51b815260206004820152600a6024820152691b9bdd08199d5b99195960b21b6044820152606490fd5b90816020910312610163575180151581036101635790565b9190820180921161145257565b634e487b7160e01b5f52601160045260245ffdfea2646970667358221220766b7de10888a6addbb791d27e61c8bb146a4e9cbf2b88e00020e1445c1f719a64736f6c63430008180033","linkReferences":{}},"methodIdentifiers":{"acceptOwnership()":"79ba5097","deliver(uint256,bytes32)":"d9b42a7f","feeRateBps()":"88c7fff3","fund(address,uint256,uint64,bytes32)":"3b3c386f","getTask(uint256)":"1d65e77e","maxDeadlineSecs()":"2c26c863","maxTaskAmount()":"b77a9548","minTaskAmount()":"4c12b7e0","nextTaskId()":"fdc3d8d7","owner()":"8da5cb5b","paused()":"5c975abb","pendingOwner()":"e30c3978","refund(uint256)":"278ecde1","release(uint256)":"37bdc99b","releaseDelaySecs()":"3f21121a","setFeeRateBps(uint256)":"bf1721f1","setMaxTaskAmount(uint256)":"d4e01bcc","setMinTaskAmount(uint256)":"2f26efa1","setPaused(bool)":"16c38b3c","setReleaseDelaySecs(uint256)":"f241f32b","setTreasury(address)":"f0f44260","taskCount()":"b6cb58a5","tasks(uint256)":"8d977672","token()":"fc0c546a","transferOwnership(address)":"f2fde38b","treasury()":"61d027b3","usedResultHashes(bytes32)":"f861fd49"},"id":21}