{"abi":[{"type":"constructor","inputs":[],"stateMutability":"nonpayable"},{"type":"function","name":"UPGRADE_INTERFACE_VERSION","inputs":[],"outputs":[{"name":"","type":"string","internalType":"string"}],"stateMutability":"view"},{"type":"function","name":"agentKeyByToken","inputs":[{"name":"","type":"uint256","internalType":"uint256"}],"outputs":[{"name":"","type":"bytes32","internalType":"bytes32"}],"stateMutability":"view"},{"type":"function","name":"approve","inputs":[{"name":"spender","type":"address","internalType":"address"},{"name":"tokenId","type":"uint256","internalType":"uint256"}],"outputs":[],"stateMutability":"nonpayable"},{"type":"function","name":"authorizedSettlers","inputs":[{"name":"","type":"address","internalType":"address"}],"outputs":[{"name":"","type":"bool","internalType":"bool"}],"stateMutability":"view"},{"type":"function","name":"balanceOf","inputs":[{"name":"","type":"address","internalType":"address"}],"outputs":[{"name":"","type":"uint256","internalType":"uint256"}],"stateMutability":"view"},{"type":"function","name":"getAgentData","inputs":[{"name":"tokenId","type":"uint256","internalType":"uint256"}],"outputs":[{"name":"agentName","type":"string","internalType":"string"},{"name":"description","type":"string","internalType":"string"},{"name":"model","type":"string","internalType":"string"},{"name":"userPromptURI","type":"string","internalType":"string"},{"name":"systemPromptURI","type":"string","internalType":"string"},{"name":"promptsEncrypted","type":"bool","internalType":"bool"}],"stateMutability":"view"},{"type":"function","name":"getApproved","inputs":[{"name":"","type":"uint256","internalType":"uint256"}],"outputs":[{"name":"","type":"address","internalType":"address"}],"stateMutability":"view"},{"type":"function","name":"getIdentitiesRoot","inputs":[{"name":"id","type":"uint256","internalType":"uint256"}],"outputs":[{"name":"","type":"bytes32","internalType":"bytes32"}],"stateMutability":"view"},{"type":"function","name":"initialize","inputs":[{"name":"initialOwner","type":"address","internalType":"address"}],"outputs":[],"stateMutability":"nonpayable"},{"type":"function","name":"isApprovedForAll","inputs":[{"name":"","type":"address","internalType":"address"},{"name":"","type":"address","internalType":"address"}],"outputs":[{"name":"","type":"bool","internalType":"bool"}],"stateMutability":"view"},{"type":"function","name":"mintAgent","inputs":[{"name":"to","type":"address","internalType":"address"},{"name":"agentId","type":"string","internalType":"string"},{"name":"uri","type":"string","internalType":"string"}],"outputs":[{"name":"tokenId","type":"uint256","internalType":"uint256"}],"stateMutability":"nonpayable"},{"type":"function","name":"name","inputs":[],"outputs":[{"name":"","type":"string","internalType":"string"}],"stateMutability":"view"},{"type":"function","name":"nextTokenId","inputs":[],"outputs":[{"name":"","type":"uint256","internalType":"uint256"}],"stateMutability":"view"},{"type":"function","name":"owner","inputs":[],"outputs":[{"name":"","type":"address","internalType":"address"}],"stateMutability":"view"},{"type":"function","name":"ownerOf","inputs":[{"name":"","type":"uint256","internalType":"uint256"}],"outputs":[{"name":"","type":"address","internalType":"address"}],"stateMutability":"view"},{"type":"function","name":"proxiableUUID","inputs":[],"outputs":[{"name":"","type":"bytes32","internalType":"bytes32"}],"stateMutability":"view"},{"type":"function","name":"reputation","inputs":[{"name":"","type":"uint256","internalType":"uint256"}],"outputs":[{"name":"","type":"uint256","internalType":"uint256"}],"stateMutability":"view"},{"type":"function","name":"safeTransferFrom","inputs":[{"name":"from","type":"address","internalType":"address"},{"name":"to","type":"address","internalType":"address"},{"name":"tokenId","type":"uint256","internalType":"uint256"}],"outputs":[],"stateMutability":"nonpayable"},{"type":"function","name":"safeTransferFrom","inputs":[{"name":"from","type":"address","internalType":"address"},{"name":"to","type":"address","internalType":"address"},{"name":"tokenId","type":"uint256","internalType":"uint256"},{"name":"data","type":"bytes","internalType":"bytes"}],"outputs":[],"stateMutability":"nonpayable"},{"type":"function","name":"seasonCount","inputs":[{"name":"","type":"uint256","internalType":"uint256"}],"outputs":[{"name":"","type":"uint256","internalType":"uint256"}],"stateMutability":"view"},{"type":"function","name":"setAgentData","inputs":[{"name":"tokenId","type":"uint256","internalType":"uint256"},{"name":"agentName","type":"string","internalType":"string"},{"name":"description","type":"string","internalType":"string"},{"name":"model","type":"string","internalType":"string"},{"name":"userPromptURI","type":"string","internalType":"string"},{"name":"systemPromptURI","type":"string","internalType":"string"},{"name":"promptsEncrypted","type":"bool","internalType":"bool"}],"outputs":[],"stateMutability":"nonpayable"},{"type":"function","name":"setApprovalForAll","inputs":[{"name":"operator","type":"address","internalType":"address"},{"name":"approved","type":"bool","internalType":"bool"}],"outputs":[],"stateMutability":"nonpayable"},{"type":"function","name":"setAuthorizedSettler","inputs":[{"name":"settler","type":"address","internalType":"address"},{"name":"authorized","type":"bool","internalType":"bool"}],"outputs":[],"stateMutability":"nonpayable"},{"type":"function","name":"setIdentitiesRoot","inputs":[{"name":"id","type":"uint256","internalType":"uint256"},{"name":"identitiesRoot","type":"bytes32","internalType":"bytes32"}],"outputs":[],"stateMutability":"nonpayable"},{"type":"function","name":"supportsInterface","inputs":[{"name":"interfaceId","type":"bytes4","internalType":"bytes4"}],"outputs":[{"name":"","type":"bool","internalType":"bool"}],"stateMutability":"pure"},{"type":"function","name":"symbol","inputs":[],"outputs":[{"name":"","type":"string","internalType":"string"}],"stateMutability":"view"},{"type":"function","name":"tokenByAgentKey","inputs":[{"name":"","type":"bytes32","internalType":"bytes32"}],"outputs":[{"name":"","type":"uint256","internalType":"uint256"}],"stateMutability":"view"},{"type":"function","name":"tokenURI","inputs":[{"name":"","type":"uint256","internalType":"uint256"}],"outputs":[{"name":"","type":"string","internalType":"string"}],"stateMutability":"view"},{"type":"function","name":"transferFrom","inputs":[{"name":"from","type":"address","internalType":"address"},{"name":"to","type":"address","internalType":"address"},{"name":"tokenId","type":"uint256","internalType":"uint256"}],"outputs":[],"stateMutability":"nonpayable"},{"type":"function","name":"transferOwnership","inputs":[{"name":"newOwner","type":"address","internalType":"address"}],"outputs":[],"stateMutability":"nonpayable"},{"type":"function","name":"updateReputation","inputs":[{"name":"tokenId","type":"uint256","internalType":"uint256"},{"name":"scoreDelta","type":"uint256","internalType":"uint256"}],"outputs":[],"stateMutability":"nonpayable"},{"type":"function","name":"upgradeToAndCall","inputs":[{"name":"newImplementation","type":"address","internalType":"address"},{"name":"data","type":"bytes","internalType":"bytes"}],"outputs":[],"stateMutability":"payable"},{"type":"function","name":"verifyIdentitiesBinding","inputs":[{"name":"id","type":"uint256","internalType":"uint256"},{"name":"nftOwnerAddress","type":"address","internalType":"address"},{"name":"userIDs","type":"string[]","internalType":"string[]"},{"name":"identitiesRoot","type":"bytes32","internalType":"bytes32"},{"name":"signature","type":"bytes","internalType":"bytes"}],"outputs":[{"name":"","type":"bool","internalType":"bool"}],"stateMutability":"view"},{"type":"event","name":"AgentRegistered","inputs":[{"name":"tokenId","type":"uint256","indexed":true,"internalType":"uint256"},{"name":"agentKey","type":"bytes32","indexed":true,"internalType":"bytes32"},{"name":"agentId","type":"string","indexed":false,"internalType":"string"}],"anonymous":false},{"type":"event","name":"AgentUpdated","inputs":[{"name":"tokenId","type":"uint256","indexed":true,"internalType":"uint256"}],"anonymous":false},{"type":"event","name":"Approval","inputs":[{"name":"owner","type":"address","indexed":true,"internalType":"address"},{"name":"spender","type":"address","indexed":true,"internalType":"address"},{"name":"tokenId","type":"uint256","indexed":true,"internalType":"uint256"}],"anonymous":false},{"type":"event","name":"ApprovalForAll","inputs":[{"name":"owner","type":"address","indexed":true,"internalType":"address"},{"name":"operator","type":"address","indexed":true,"internalType":"address"},{"name":"approved","type":"bool","indexed":false,"internalType":"bool"}],"anonymous":false},{"type":"event","name":"Initialized","inputs":[{"name":"version","type":"uint64","indexed":false,"internalType":"uint64"}],"anonymous":false},{"type":"event","name":"OwnershipTransferred","inputs":[{"name":"previousOwner","type":"address","indexed":true,"internalType":"address"},{"name":"newOwner","type":"address","indexed":true,"internalType":"address"}],"anonymous":false},{"type":"event","name":"ReputationUpdated","inputs":[{"name":"tokenId","type":"uint256","indexed":true,"internalType":"uint256"},{"name":"newReputation","type":"uint256","indexed":false,"internalType":"uint256"},{"name":"seasonCount","type":"uint256","indexed":false,"internalType":"uint256"}],"anonymous":false},{"type":"event","name":"SetIdentitiesRoot","inputs":[{"name":"id","type":"uint256","indexed":true,"internalType":"uint256"},{"name":"identitiesRoot","type":"bytes32","indexed":false,"internalType":"bytes32"}],"anonymous":false},{"type":"event","name":"SettlerAuthorized","inputs":[{"name":"settler","type":"address","indexed":true,"internalType":"address"},{"name":"authorized","type":"bool","indexed":false,"internalType":"bool"}],"anonymous":false},{"type":"event","name":"Transfer","inputs":[{"name":"from","type":"address","indexed":true,"internalType":"address"},{"name":"to","type":"address","indexed":true,"internalType":"address"},{"name":"tokenId","type":"uint256","indexed":true,"internalType":"uint256"}],"anonymous":false},{"type":"event","name":"Upgraded","inputs":[{"name":"implementation","type":"address","indexed":true,"internalType":"address"}],"anonymous":false},{"type":"error","name":"AddressEmptyCode","inputs":[{"name":"target","type":"address","internalType":"address"}]},{"type":"error","name":"ERC1967InvalidImplementation","inputs":[{"name":"implementation","type":"address","internalType":"address"}]},{"type":"error","name":"ERC1967NonPayable","inputs":[]},{"type":"error","name":"FailedCall","inputs":[]},{"type":"error","name":"InvalidInitialization","inputs":[]},{"type":"error","name":"NotInitializing","inputs":[]},{"type":"error","name":"UUPSUnauthorizedCallContext","inputs":[]},{"type":"error","name":"UUPSUnsupportedProxiableUUID","inputs":[{"name":"slot","type":"bytes32","internalType":"bytes32"}]}],"bytecode":{"object":"0x60a080604052346100cc57306080527ff0c57e16840df040f15088dc2f81fe391c3923bec73e23a9662efc9c229c6a009081549060ff8260401c166100bd57506001600160401b036002600160401b031982821601610078575b60405161239d90816100d18239608051818181610ff4015261109b0152f35b6001600160401b031990911681179091556040519081527fc7f505b2f371ae2175ee4913f4499e1f2633a7b5936321eed1cdaeb6115181d290602090a15f8080610059565b63f92ee8a960e01b8152600490fd5b5f80fdfe6080806040526004361015610012575f80fd5b5f3560e01c90816301ffc9a7146119d1575080630675f763146118c957806306fdde0314611820578063081812fc146117ee578063095ea7b3146116c15780630d2a76841461169757806323b872dd1461168057806329249863146116565780632f2234721461158657806342842e0e1461154e57806345692b82146115245780634f18dd221461123e5780634f1ef2861461105e57806352d1902d14610fe257806356c708d514610fb85780636352211e14610f865780636aee318c14610e965780636b5a4c861461090d57806370a08231146108d557806375794a3c146108b85780638da5cb5b146108915780638f46ea461461086757806395d89b4114610789578063a22cb46514610703578063ad3cb1cc14610698578063af87e086146105af578063b88d4fde1461055f578063c4d66de81461033d578063c87b56dd146102fb578063e5f070a4146102be578063e985e9c51461026c578063f2fde38b146101f95763ff30a11814610187575f80fd5b346101f55760403660031901126101f5576004357f21b5a040ca6f61b8bcacb8f423e25ce46e88932f887ce92e60343369c20ec06f6020602435835f52600482526101df60018060a01b0360405f2054163314612090565b835f52600f82528060405f2055604051908152a2005b5f80fd5b346101f55760203660031901126101f557610212611b8d565b5f546001600160a01b038082169261022b338514611ec2565b1680926102398215156121fe565b7f8be0079c531659141344cd1fd0a4f28419497f9722a3daafe3b4186f6b6457e05f80a36001600160a01b031916175f55005b346101f55760403660031901126101f557610285611b8d565b61028d611ba3565b9060018060a01b038091165f52600760205260405f2091165f52602052602060ff60405f2054166040519015158152f35b346101f55760203660031901126101f5576001600160a01b036102df611b8d565b165f52600d602052602060ff60405f2054166040519015158152f35b346101f55760203660031901126101f5576004355f52600860205261033961032560405f20611aad565b604051918291602083526020830190611b4f565b0390f35b346101f55760203660031901126101f557610356611b8d565b7ff0c57e16840df040f15088dc2f81fe391c3923bec73e23a9662efc9c229c6a0080549160ff8360401c1615906001600160401b03841693841580610558575b6001809614908161054e575b159081610545575b506105335767ffffffffffffffff1981168517845582610514575b506001600160a01b03166103da8115156121fe565b6001600160601b0360a01b5f5416175f556103f58354611a54565b601f81116104cb575b5060166a105c995b98481059d95b9d60aa1b01835560025461041f90611a54565b601f8111610481575b50600a641051d1539560da1b01600255600383905561044357005b805468ff0000000000000000191690556040519081527fc7f505b2f371ae2175ee4913f4499e1f2633a7b5936321eed1cdaeb6115181d290602090a1005b60025f5283601f7f405787fa12a823e0f2b7631cc41b3ba8828b3321ca811111fa75cd3aa3bb5ace920160051c8201915b8281106104c0575050610428565b5f81550184906104b2565b835f5283601f7fb10e2d527612073b26eecdfd717e6a320cf44b4afac2b0732d9fcbe2b7fa0cf6920160051c8201915b8281106105095750506103fe565b5f81550184906104fb565b68ffffffffffffffffff191668010000000000000001178355846103c5565b60405163f92ee8a960e01b8152600490fd5b905015866103aa565b303b1591506103a2565b5082610396565b346101f55760803660031901126101f557610578611b8d565b610580611ba3565b606435916001600160401b0383116101f5576105a36105ad933690600401611c6f565b91604435916120dc565b005b346101f55760203660031901126101f557600435805f5260046020526105e260018060a01b0360405f2054161515611c8d565b5f52600e60205261065460405f2060ff60058201541661068c61060483611aad565b9261067e61061460018301611aad565b9161067061062460028301611aad565b61066261063f600461063860038701611aad565b9501611aad565b956040519a8b9a60c08c5260c08c0190611b4f565b908a820360208c0152611b4f565b9088820360408a0152611b4f565b908682036060880152611b4f565b908482036080860152611b4f565b90151560a08301520390f35b346101f5575f3660031901126101f55760405160408101908082106001600160401b038311176106ef576103399160405260058152640352e302e360dc1b6020820152604051918291602083526020830190611b4f565b634e487b7160e01b5f52604160045260245ffd5b346101f55760403660031901126101f55761071c611b8d565b610724611bee565b335f52600760205260405f209160018060a01b031691825f526020526107598160405f209060ff801983541691151516179055565b60405190151581527f17307eab39ab6107e8899845ad3d59bd9653f200f220920489ca2b5937696c3160203392a3005b346101f5575f3660031901126101f5576040516002545f826107aa83611a54565b91828252602093600190856001821691825f146108475750506001146107ec575b506107d892500383611a8c565b610339604051928284938452830190611b4f565b84915060025f527f405787fa12a823e0f2b7631cc41b3ba8828b3321ca811111fa75cd3aa3bb5ace905f915b85831061082f5750506107d89350820101856107cb565b80548389018501528794508693909201918101610818565b60ff1916858201526107d895151560051b85010192508791506107cb9050565b346101f55760203660031901126101f5576004355f52600a602052602060405f2054604051908152f35b346101f5575f3660031901126101f5575f546040516001600160a01b039091168152602090f35b346101f5575f3660031901126101f5576020600354604051908152f35b346101f55760203660031901126101f5576001600160a01b036108f6611b8d565b165f526005602052602060405f2054604051908152f35b346101f55760e03660031901126101f5576004356024356001600160401b0381116101f557610940903690600401611bfd565b906044356001600160401b0381116101f557610960903690600401611bfd565b6064929192356001600160401b0381116101f557610982903690600401611bfd565b9190936084356001600160401b0381116101f5576109a4903690600401611bfd565b94909260a4356001600160401b0381116101f5576109c6903690600401611bfd565b94909260c435988915158a036101f5578b5f5260046020526109f560018060a01b0360405f2054163314612090565b6040519a8b6001600160401b0360c08281810110920111176106ef57610a6996610a5a958d610a33610a4b96610a3c9560c084016040523691611c2a565b90523691611c2a565b9760208c019889523691611c2a565b9660408a019788523691611c2a565b92606088019384523691611c2a565b926080860193845260a086019415158552865f52600e60205260405f2095518051906001600160401b0382116106ef57610aad82610aa78a54611a54565b8a611f04565b602090601f8311600114610e3257610adc92915f9183610d5e575b50508160011b915f199060031b1c19161790565b86555b60019283870190518051906001600160401b0382116106ef57610b0c82610b068554611a54565b85611f04565b602090601f8311600114610dd357610b3a92915f9183610dc85750508160011b915f199060031b1c19161790565b90555b51805160028701916001600160401b0382116106ef57610b6182610b068554611a54565b602090601f8311600114610d6957610b8f92915f9183610d5e5750508160011b915f199060031b1c19161790565b90555b51805160038601916001600160401b0382116106ef57610bb682610b068554611a54565b602090601f8311600114610cff57610be492915f9183610c8a5750508160011b915f199060031b1c19161790565b90555b600484019151908151916001600160401b0383116106ef57610c1383610c0d8654611a54565b86611f04565b602091601f8411600114610c95575082610c6496959360059593610c4b935f92610c8a5750508160011b915f199060031b1c19161790565b90555b51151591019060ff801983541691151516179055565b7ff9ad94c5cd385423b7d420bd953716dc348c65914cceb49759c095b7ba0064a95f80a2005b015190508980610ac8565b9291601f19831691855f5260205f20925f5b818110610ce9575091610c64989795939185600598969410610cd1575b505050811b019055610c4e565b01515f1960f88460031b161c19169055888080610cc4565b8284015185559386019360209384019301610ca7565b849291601f19831691855f5260205f20925f5b818110610d4657508411610d2e575b505050811b019055610be7565b01515f1960f88460031b161c19169055888080610d21565b82840151855588969094019360209384019301610d12565b015190508a80610ac8565b859291601f19831691855f5260205f20925f5b818110610db057508411610d98575b505050811b019055610b92565b01515f1960f88460031b161c19169055898080610d8b565b82840151855589969094019360209384019301610d7c565b015190508b80610ac8565b869291601f19831691855f5260205f20925f5b818110610e1a57508411610e02575b505050811b019055610b3d565b01515f1960f88460031b161c191690558a8080610df5565b8284015185558a969094019360209384019301610de6565b90601f19831691895f5260205f20925f5b818110610e7e5750908460019594939210610e66575b505050811b018655610adf565b01515f1960f88460031b161c19169055898080610e59565b92936020600181928786015181550195019301610e43565b346101f55760a03660031901126101f557610eaf611ba3565b60448035916001600160401b03918284116101f557366023850112156101f55783600401359360248486116106ef578560051b60209360405197610ef6602084018a611a8c565b885260246020890192850101933685116101f55760248101925b858410610f505789608435898b82116101f557602092610f37610f46933690600401611bfd565b92909160643591600435611f53565b6040519015158152f35b83358981116101f5578201366043820112156101f5578791610f7b83923690878a8201359101611c2a565b815201930192610f10565b346101f55760203660031901126101f5576004355f526004602052602060018060a01b0360405f205416604051908152f35b346101f55760203660031901126101f5576004355f52600b602052602060405f2054604051908152f35b346101f5575f3660031901126101f5577f00000000000000000000000000000000000000000000000000000000000000006001600160a01b0316300361104c5760206040517f360894a13ba1a3210667c828492db98dca3e2076cc3735a920a3ca505d382bbc8152f35b60405163703e46dd60e11b8152600490fd5b60403660031901126101f557611072611b8d565b6024356001600160401b0381116101f557611091903690600401611c6f565b6001600160a01b037f00000000000000000000000000000000000000000000000000000000000000008116308114908115611210575b5061104c576110da815f54163314611ec2565b8216916040516352d1902d60e01b8152602081600481875afa5f91816111dc575b5061111957604051634c9c8ce360e01b815260048101859052602490fd5b7f360894a13ba1a3210667c828492db98dca3e2076cc3735a920a3ca505d382bbc908181036111c45750813b156111ab5780546001600160a01b03191684179055604051927fbc7cd75a20ee27fd9adebab32041f755214dbc6bffa90cc0225b39da2e5c2d3b5f80a2815115611193576105ad92506122d6565b50503461119c57005b63b398979f60e01b8152600490fd5b604051634c9c8ce360e01b815260048101859052602490fd5b60249060405190632a87526960e21b82526004820152fd5b9091506020813d602011611208575b816111f860209383611a8c565b810103126101f5575190856110fb565b3d91506111eb565b9050817f360894a13ba1a3210667c828492db98dca3e2076cc3735a920a3ca505d382bbc54161415846110c7565b346101f55760603660031901126101f557611257611b8d565b6001600160401b036024358181116101f557611277903690600401611bfd565b9190926044358281116101f557611292903690600401611bfd565b5f54909491926001600160a01b03916112ae9083163314611ec2565b16906112bb821515611cd9565b6040519560209687810190838383376112e289828681015f83820152038084520182611a8c565b51902094855f52600a885260405f20546114e657600354965f198089146114d25760019660018a01600355895f5260048b5260405f20876001600160601b0360a01b825416179055865f5260058b5260405f20805490600182018092116114d25755895f5260088b5260405f209383116106ef57899761136c846113668754611a54565b87611f04565b5f92601f851160011461143d575050937ff8defb18842052e7936beb96cd8067afd3056da9b3cb1bbc3c2dc59f5ac810ed96936113c58488958b99956040995f926114325750508160011b915f199060031b1c19161790565b90555b855f5260098b5288855f2055885f52600a8b5285855f205584519586945f7fddf252ad1be2c89b69c2b068fc378daa952ba7f163c4a11628f55a4df523b3ef8180a48a8452818b850152848401375f828201840152601f01601f19168101030190a3604051908152f35b013590508f80610ac8565b5f8681528d81209492601f19871691908f5b8383106114b85750505094889594604098947ff8defb18842052e7936beb96cd8067afd3056da9b3cb1bbc3c2dc59f5ac810ed9b9894600194848f9d99106114a0575b50505050811b0190556113c8565b60f88560031b161c199101351690558e808080611492565b8686013588558f9d5096810196948501949182019161144f565b634e487b7160e01b5f52601160045260245ffd5b60405162461bcd60e51b81526004810189905260166024820152754167656e744e46413a206167656e742065786973747360501b6044820152606490fd5b346101f55760203660031901126101f5576004355f52600f602052602060405f2054604051908152f35b346101f55761155c36611bb9565b6040519160208301938385106001600160401b038611176106ef576105ad946040525f84526120dc565b346101f55760403660031901126101f55761159f611b8d565b6115a7611bee565b5f5490916001600160a01b03916115c19083163314611ec2565b169081156116185760207f0a17a8062ade308be1285c81e61a7c8e57ff8c99789eb56077d8203eb01d72ef91835f52600d825261160d8160405f209060ff801983541691151516179055565b6040519015158152a2005b60405162461bcd60e51b815260206004820152601660248201527520b3b2b73a2723209d103d32b9379039b2ba3a3632b960511b6044820152606490fd5b346101f55760203660031901126101f5576004355f52600c602052602060405f2054604051908152f35b346101f5576105ad61169136611bb9565b91611d19565b346101f55760203660031901126101f5576004355f526009602052602060405f2054604051908152f35b346101f55760403660031901126101f5576116da611b8d565b60243590815f5260206004815260018060a01b038060405f2054169182156117b3578233148015611795575b1561175157600690855f525260405f20921691826001600160601b0360a01b8254161790557f8c5be1e5ebec7d5bd14f71427d1e84f3dd0314c0f7b2291e5b200ac8c7c3b9255f80a4005b6064906040519062461bcd60e51b82526004820152601c60248201527f4167656e744e46413a206e6f7420617070726f766564206f776e6572000000006044820152fd5b50825f526007815260405f20335f52815260ff60405f205416611706565b6064906040519062461bcd60e51b8252600482015260146024820152731059d95b9d1391904e881b9bdd081b5a5b9d195960621b6044820152fd5b346101f55760203660031901126101f5576004355f526006602052602060018060a01b0360405f205416604051908152f35b346101f5575f3660031901126101f5576040515f6001826001549261184484611a54565b92838352602094856001821691825f1461084757505060011461186e57506107d892500383611a8c565b84915060015f527fb10e2d527612073b26eecdfd717e6a320cf44b4afac2b0732d9fcbe2b7fa0cf6905f915b8583106118b15750506107d89350820101856107cb565b8054838901850152879450869390920191810161189a565b346101f55760403660031901126101f557600435335f526020600d815260ff60405f2054161561198e575f828152600482526040902054611914906001600160a01b03161515611c8d565b815f52600b815260405f2080549060243582018092116114d25755815f52600c815260405f20805491600183018093116114d2577fd9f66501c000653403d74ddfa62a75c8dd44cc05d910ee81bf1d852262dd5fa19260409255835f52600b8152815f205490600c8152825f2054908351928352820152a2005b6064906040519062461bcd60e51b825280600483015260248201527f4167656e744e46413a206e6f7420617574686f72697a656420736574746c65726044820152fd5b346101f55760203660031901126101f5576004359063ffffffff60e01b82168092036101f5576020916301ffc9a760e01b8114908115611a43575b8115611a32575b8115611a21575b5015158152f35b63685bdd8b60e11b14905083611a1a565b6357c3f04360e11b81149150611a13565b6380ac58cd60e01b81149150611a0c565b90600182811c92168015611a82575b6020831014611a6e57565b634e487b7160e01b5f52602260045260245ffd5b91607f1691611a63565b90601f801991011681019081106001600160401b038211176106ef57604052565b9060405191825f8254611abf81611a54565b908184526020946001916001811690815f14611b2d5750600114611aef575b505050611aed92500383611a8c565b565b5f90815285812095935091905b818310611b15575050611aed93508201015f8080611ade565b85548884018501529485019487945091830191611afc565b92505050611aed94925060ff191682840152151560051b8201015f8080611ade565b91908251928382525f5b848110611b79575050825f602080949584010152601f8019910116010190565b602081830181015184830182015201611b59565b600435906001600160a01b03821682036101f557565b602435906001600160a01b03821682036101f557565b60609060031901126101f5576001600160a01b039060043582811681036101f5579160243590811681036101f5579060443590565b6024359081151582036101f557565b9181601f840112156101f5578235916001600160401b0383116101f557602083818601950101116101f557565b9291926001600160401b0382116106ef5760405191611c53601f8201601f191660200184611a8c565b8294818452818301116101f5578281602093845f960137010152565b9080601f830112156101f557816020611c8a93359101611c2a565b90565b15611c9457565b60405162461bcd60e51b815260206004820152601a60248201527f4167656e744e46413a20746f6b656e206e6f74206d696e7465640000000000006044820152606490fd5b15611ce057565b60405162461bcd60e51b81526020600482015260116024820152704167656e744e46413a207a65726f20746f60781b6044820152606490fd5b6001600160a01b0391821691611d30831515611cd9565b835f5260049060208281526040918080845f2054169516809503611e8957865f5283825280835f205416803314918215611e74575b508115611e57575b5015611e1d57855f5260068152815f206001600160601b0360a01b9081815416905583825285835f2091825416179055835f5260058152815f208054905f198201918211611e0a57906005929155855f52525f2080549160018301809311611df75750557fddf252ad1be2c89b69c2b068fc378daa952ba7f163c4a11628f55a4df523b3ef5f80a4565b601190634e487b7160e01b5f525260245ffd5b601185634e487b7160e01b5f525260245ffd5b905162461bcd60e51b81529182015260166024820152751059d95b9d1391904e881b9bdd08185c1c1c9bdd995960521b6044820152606490fd5b90505f5260078152815f20335f52815260ff825f2054165f611d6d565b600684525f8581205490911633149250611d65565b50905162461bcd60e51b81529182015260146024820152734167656e744e46413a2077726f6e672066726f6d60601b6044820152606490fd5b15611ec957565b60405162461bcd60e51b815260206004820152601360248201527220b3b2b73a2723209d103737ba1037bbb732b960691b6044820152606490fd5b601f8211611f1157505050565b5f5260205f20906020601f840160051c83019310611f49575b601f0160051c01905b818110611f3e575050565b5f8155600101611f33565b9091508190611f2a565b9491939094805f52602090600f825260409480865f20540361208457600483525f869020546001600160a01b039889169897908816899003612077579091865180928582019460a083019386528b8a84015260806060840152815180945260c08301938760c08260051b8601019301945f905b898383106120485750505050611fea9350608083015203601f198101835282611a8c565b519020908451908101917f19457468657265756d205369676e6564204d6573736167653a0a3332000000008352603c820152603c8152606081018181106001600160401b038211176106ef576120439552519020612241565b161490565b6001929496506120658192949660bf198b82030186528951611b4f565b97019201920186949295939195611fc6565b5050505050505050505f90565b50505050505050505f90565b1561209757565b60405162461bcd60e51b815260206004820152601960248201527f4167656e744e46413a206e6f7420746f6b656e206f776e6572000000000000006044820152606490fd5b929190916120eb828486611d19565b823b6120f8575b50505050565b61213f926020925f60018060a01b0360405180978196829584630a85bd0160e11b9c8d86523360048701521660248501526044840152608060648401526084830190611b4f565b0393165af19081156121f3575f916121b0575b506001600160e01b0319160361216b575f8080806120f2565b60405162461bcd60e51b815260206004820152601960248201527f4167656e744e46413a20756e73616665207265636569766572000000000000006044820152606490fd5b90506020813d6020116121eb575b816121cb60209383611a8c565b810103126101f557516001600160e01b0319811681036101f5575f612152565b3d91506121be565b6040513d5f823e3d90fd5b1561220557565b60405162461bcd60e51b815260206004820152601460248201527320b3b2b73a2723209d103d32b9379037bbb732b960611b6044820152606490fd5b916041036122d05760408101355f1a601b81106122b0575b60ff1690601b821415806122a5575b61229e57602092836080925f9460405193845282840152803560408401520135606082015282805260015afa156121f3575f5190565b5050505f90565b50601c821415612268565b601b0160ff81111561225957634e487b7160e01b5f52601160045260245ffd5b50505f90565b905f8091602081519101845af48080612354575b1561230a5750506040513d81523d5f602083013e60203d82010160405290565b1561233157604051639996b31560e01b81526001600160a01b039091166004820152602490fd5b3d15612342576040513d5f823e3d90fd5b60405163d6bda27560e01b8152600490fd5b503d1515806122ea5750813b15156122ea56fea264697066735822122097766ca7d38ee1841da539104cbb303eb67932e4fdf4462eacd254b6de3e97fd64736f6c63430008180033","linkReferences":{}},"methodIdentifiers":{"UPGRADE_INTERFACE_VERSION()":"ad3cb1cc","agentKeyByToken(uint256)":"0d2a7684","approve(address,uint256)":"095ea7b3","authorizedSettlers(address)":"e5f070a4","balanceOf(address)":"70a08231","getAgentData(uint256)":"af87e086","getApproved(uint256)":"081812fc","getIdentitiesRoot(uint256)":"45692b82","initialize(address)":"c4d66de8","isApprovedForAll(address,address)":"e985e9c5","mintAgent(address,string,string)":"4f18dd22","name()":"06fdde03","nextTokenId()":"75794a3c","owner()":"8da5cb5b","ownerOf(uint256)":"6352211e","proxiableUUID()":"52d1902d","reputation(uint256)":"56c708d5","safeTransferFrom(address,address,uint256)":"42842e0e","safeTransferFrom(address,address,uint256,bytes)":"b88d4fde","seasonCount(uint256)":"29249863","setAgentData(uint256,string,string,string,string,string,bool)":"6b5a4c86","setApprovalForAll(address,bool)":"a22cb465","setAuthorizedSettler(address,bool)":"2f223472","setIdentitiesRoot(uint256,bytes32)":"ff30a118","supportsInterface(bytes4)":"01ffc9a7","symbol()":"95d89b41","tokenByAgentKey(bytes32)":"8f46ea46","tokenURI(uint256)":"c87b56dd","transferFrom(address,address,uint256)":"23b872dd","transferOwnership(address)":"f2fde38b","updateReputation(uint256,uint256)":"0675f763","upgradeToAndCall(address,bytes)":"4f1ef286","verifyIdentitiesBinding(uint256,address,string[],bytes32,bytes)":"6aee318c"},"id":38}