{"abi":[{"type":"constructor","inputs":[],"stateMutability":"nonpayable"},{"type":"receive","stateMutability":"payable"},{"type":"function","name":"CALL","inputs":[],"outputs":[{"name":"","type":"uint8","internalType":"uint8"}],"stateMutability":"view"},{"type":"function","name":"CREATE","inputs":[],"outputs":[{"name":"","type":"uint8","internalType":"uint8"}],"stateMutability":"view"},{"type":"function","name":"CREATE2","inputs":[],"outputs":[{"name":"","type":"uint8","internalType":"uint8"}],"stateMutability":"view"},{"type":"function","name":"DELEGATECALL","inputs":[],"outputs":[{"name":"","type":"uint8","internalType":"uint8"}],"stateMutability":"view"},{"type":"function","name":"authorizedCallers","inputs":[{"name":"","type":"address","internalType":"address"}],"outputs":[{"name":"","type":"bool","internalType":"bool"}],"stateMutability":"view"},{"type":"function","name":"authorizedCallersByOwner","inputs":[{"name":"","type":"address","internalType":"address"},{"name":"","type":"address","internalType":"address"}],"outputs":[{"name":"","type":"bool","internalType":"bool"}],"stateMutability":"view"},{"type":"function","name":"chainId","inputs":[],"outputs":[{"name":"","type":"uint256","internalType":"uint256"}],"stateMutability":"view"},{"type":"function","name":"execute","inputs":[{"name":"to","type":"address","internalType":"address"},{"name":"value","type":"uint256","internalType":"uint256"},{"name":"data","type":"bytes","internalType":"bytes"},{"name":"operation","type":"uint8","internalType":"uint8"}],"outputs":[{"name":"result","type":"bytes","internalType":"bytes"}],"stateMutability":"payable"},{"type":"function","name":"executeCall","inputs":[{"name":"to","type":"address","internalType":"address"},{"name":"value","type":"uint256","internalType":"uint256"},{"name":"data","type":"bytes","internalType":"bytes"}],"outputs":[{"name":"result","type":"bytes","internalType":"bytes"}],"stateMutability":"nonpayable"},{"type":"function","name":"guardianRegistry","inputs":[],"outputs":[{"name":"","type":"address","internalType":"address"}],"stateMutability":"view"},{"type":"function","name":"initialize","inputs":[{"name":"_tokenContract","type":"address","internalType":"address"},{"name":"_tokenId","type":"uint256","internalType":"uint256"},{"name":"_chainId","type":"uint256","internalType":"uint256"}],"outputs":[],"stateMutability":"nonpayable"},{"type":"function","name":"isValidSignature","inputs":[{"name":"hash","type":"bytes32","internalType":"bytes32"},{"name":"signature","type":"bytes","internalType":"bytes"}],"outputs":[{"name":"","type":"bytes4","internalType":"bytes4"}],"stateMutability":"view"},{"type":"function","name":"isValidSigner","inputs":[{"name":"signer","type":"address","internalType":"address"},{"name":"","type":"bytes","internalType":"bytes"}],"outputs":[{"name":"","type":"bytes4","internalType":"bytes4"}],"stateMutability":"view"},{"type":"function","name":"owner","inputs":[],"outputs":[{"name":"","type":"address","internalType":"address"}],"stateMutability":"view"},{"type":"function","name":"rescueERC20","inputs":[{"name":"token_","type":"address","internalType":"address"},{"name":"to","type":"address","internalType":"address"},{"name":"amount","type":"uint256","internalType":"uint256"}],"outputs":[],"stateMutability":"nonpayable"},{"type":"function","name":"rescueNative","inputs":[{"name":"to","type":"address","internalType":"address payable"},{"name":"amount","type":"uint256","internalType":"uint256"}],"outputs":[],"stateMutability":"nonpayable"},{"type":"function","name":"setAuthorizedCaller","inputs":[{"name":"caller","type":"address","internalType":"address"},{"name":"authorized","type":"bool","internalType":"bool"}],"outputs":[],"stateMutability":"nonpayable"},{"type":"function","name":"state","inputs":[],"outputs":[{"name":"","type":"uint256","internalType":"uint256"}],"stateMutability":"view"},{"type":"function","name":"supportsInterface","inputs":[{"name":"interfaceId","type":"bytes4","internalType":"bytes4"}],"outputs":[{"name":"","type":"bool","internalType":"bool"}],"stateMutability":"pure"},{"type":"function","name":"token","inputs":[],"outputs":[{"name":"","type":"uint256","internalType":"uint256"},{"name":"","type":"address","internalType":"address"},{"name":"","type":"uint256","internalType":"uint256"}],"stateMutability":"view"},{"type":"function","name":"tokenContract","inputs":[],"outputs":[{"name":"","type":"address","internalType":"address"}],"stateMutability":"view"},{"type":"function","name":"tokenId","inputs":[],"outputs":[{"name":"","type":"uint256","internalType":"uint256"}],"stateMutability":"view"},{"type":"event","name":"CallerAuthorized","inputs":[{"name":"caller","type":"address","indexed":true,"internalType":"address"},{"name":"authorized","type":"bool","indexed":false,"internalType":"bool"}],"anonymous":false},{"type":"event","name":"Executed","inputs":[{"name":"to","type":"address","indexed":true,"internalType":"address"},{"name":"value","type":"uint256","indexed":false,"internalType":"uint256"},{"name":"data","type":"bytes","indexed":false,"internalType":"bytes"},{"name":"result","type":"bytes","indexed":false,"internalType":"bytes"}],"anonymous":false},{"type":"event","name":"Initialized","inputs":[{"name":"version","type":"uint64","indexed":false,"internalType":"uint64"}],"anonymous":false},{"type":"event","name":"RescueERC20","inputs":[{"name":"token","type":"address","indexed":true,"internalType":"address"},{"name":"to","type":"address","indexed":true,"internalType":"address"},{"name":"amount","type":"uint256","indexed":false,"internalType":"uint256"}],"anonymous":false},{"type":"event","name":"RescueNative","inputs":[{"name":"to","type":"address","indexed":true,"internalType":"address"},{"name":"amount","type":"uint256","indexed":false,"internalType":"uint256"}],"anonymous":false},{"type":"error","name":"InvalidInitialization","inputs":[]},{"type":"error","name":"NotInitializing","inputs":[]}],"bytecode":{"object":"0x608080604052346100b8577ff0c57e16840df040f15088dc2f81fe391c3923bec73e23a9662efc9c229c6a009081549060ff8260401c166100a957506001600160401b036002600160401b031982821601610064575b60405161106c90816100bd8239f35b6001600160401b031990911681179091556040519081527fc7f505b2f371ae2175ee4913f4499e1f2633a7b5936321eed1cdaeb6115181d290602090a15f8080610055565b63f92ee8a960e01b8152600490fd5b5f80fdfe6080604090808252600480361015610021575b505050361561001f575f80fd5b005b5f3560e01c91826301ffc9a714610b09575081631291f79d14610a265781631626ba7e146109e957816317d70f7c146109cb5781631cd48842146109b15781634232a3c314610989578163454bbd291461086c5781634b5aea5d14610851578163519454471461070f578163523e3260146106b7578163536fff6c1461067b57816355a373d6146106545781637a1ac61e1461050757816381d0974d146104ec5781638da5cb5b146104bf5781639a8a0592146104a15781639e5d4c4914610379578163b2118a8d146101df578163c19d93fb146101c1578163c44664af146101a6578163df05fd2d1461015a575063fc0c546a14610121578080610012565b34610156575f366003190112610156576060906002549060018060a01b035f5416906001549181519384526020840152820152f35b5f80fd5b8234610156578060031936011261015657602091610176610bb9565b61017e610bcf565b9160018060a01b038092165f528452825f2091165f52825260ff815f20541690519015158152f35b8234610156575f366003190112610156576020905160018152f35b8234610156575f366003190112610156576020906006549051908152f35b905034610156576060366003190112610156576101fa610bb9565b90610203610bcf565b916044359060018060a01b03809161022082600554163314610c23565b6102338261022c610eb5565b1615610c6f565b16938415610336571693610248851515610cbb565b80519263a9059cbb60e01b8452858185015282602485015260209384816044815f8a5af190811561032c575f916102f6575b50156102ab5750519081527f9b793652de97f04c5168920587bad4b1c6345295a8f5ad31c59ff946a26f91d29190a3005b83608492519162461bcd60e51b8352820152602160248201527f4167656e744163636f756e743a20746f6b656e20726573637565206661696c656044820152601960fa1b6064820152fd5b90508481813d8311610325575b61030d8183610cff565b8101031261015657518015158103610156575f61027a565b503d610303565b83513d5f823e3d90fd5b855162461bcd60e51b8152602081860152601860248201527f4167656e744163636f756e743a207a65726f20746f6b656e00000000000000006044820152606490fd5b90503461015657606036600319011261015657610394610bb9565b906024359160443567ffffffffffffffff8111610156576103b89036908401610b8b565b6103c0610eb5565b6001600160a01b03949085163381148015610482575b6103e09150610dbe565b600654906001820180921161046f5761046b61044989897fe39b605d485d947e52b62c3b5028a14d5277db44425263c74171a857071543348a8a6104568b8b8b6006555f808951838582378084810183815203908a885af191610441610d35565b998a93610e0a565b8851958695169785610e56565b0390a251918291602083526020830190610be5565b0390f35b601190634e487b7160e01b5f525260245ffd5b505f5280602052865f20335f526020526103e060ff885f2054166103d6565b8234610156575f366003190112610156576020906002549051908152f35b8234610156575f366003190112610156576020906104db610eb5565b90516001600160a01b039091168152f35b8234610156575f366003190112610156576020905160028152f35b90503461015657606036600319011261015657610522610bb9565b907ff0c57e16840df040f15088dc2f81fe391c3923bec73e23a9662efc9c229c6a0091825460ff81861c16159267ffffffffffffffff82168015908161064c575b6001149081610642575b159081610639575b5061062b575067ffffffffffffffff19811660011784558261060c575b506bffffffffffffffffffffffff60a01b9060018060a01b0316815f5416175f55602435600155604435600255339060055416176005556105cf57005b805468ff00000000000000001916905551600181527fc7f505b2f371ae2175ee4913f4499e1f2633a7b5936321eed1cdaeb6115181d290602090a1005b68ffffffffffffffffff1916680100000000000000011783555f610592565b855163f92ee8a960e01b8152fd5b9050155f610575565b303b15915061056d565b859150610563565b8234610156575f366003190112610156575f5490516001600160a01b039091168152602090f35b8234610156576020366003190112610156576020906001600160a01b036106a0610bb9565b165f526003825260ff815f20541690519015158152f35b82346101565780600319360112610156576106d0610bb9565b916024359267ffffffffffffffff8411610156576106f66106fd92602095369101610b8b565b5050610e99565b90516001600160e01b03199091168152f35b9050608036600319011261015657610725610bb9565b906024359160443567ffffffffffffffff8111610156576107499036908401610b8b565b6064359360ff851680950361015657610760610eb5565b6001600160a01b03959086163381148015610832575b6107809150610dbe565b6107e557600654906001820180921161046f5761046b61044989897fe39b605d485d947e52b62c3b5028a14d5277db44425263c74171a857071543348a8a6104568b8b8b6006555f808951838582378084810183815203908a885af191610441610d35565b608490602088519162461bcd60e51b8352820152602160248201527f4167656e744163636f756e743a206f6e6c792043414c4c20737570706f7274656044820152601960fa1b6064820152fd5b505f5281602052875f20335f5260205261078060ff895f205416610776565b8234610156575f366003190112610156576020905160038152f35b905034610156578160031936011261015657610886610bb9565b91602435918215158093036101565761089d610eb5565b6001600160a01b039081169433869003610946571693841561090357917f100c9fd652c7b273c9266f92f22ac2352eb8d7232013ac0439e9066a9227f36993916020935f528352805f20855f528352805f2060ff1981541660ff841617905551908152a2005b506020606492519162461bcd60e51b8352820152601960248201527f4167656e744163636f756e743a207a65726f2063616c6c6572000000000000006044820152fd5b835162461bcd60e51b8152602081850152601d60248201527f4167656e744163636f756e743a206e6f7420746f6b656e206f776e65720000006044820152606490fd5b8234610156575f3660031901126101565760055490516001600160a01b039091168152602090f35b8234610156575f36600319011261015657602090515f8152f35b8234610156575f366003190112610156576020906001549051908152f35b823461015657806003193601126101565760243567ffffffffffffffff811161015657602092610a1f6106fd9236908301610b8b565b9135610d74565b9050346101565781600319360112610156576001600160a01b0381358181169391929084900361015657610a6e60243593610a6681600554163314610c23565b61022c610eb5565b610a79841515610cbb565b5f80808086885af1610a89610d35565b5015610abc57507ffdf9af81fab92b918baa794ad0e9ba32c6869f6a87ce9463f2ef50e1bf7c27e59160209151908152a2005b6020608492519162461bcd60e51b8352820152602260248201527f4167656e744163636f756e743a206e617469766520726573637565206661696c604482015261195960f21b6064820152fd5b903461015657602036600319011261015657359063ffffffff60e01b8216809203610156576020916301ffc9a760e01b8114908115610b7a575b8115610b69575b8115610b58575b5015158152f35b630b135d3f60e11b14905083610b51565b635194544760e01b81149150610b4a565b636faff5f160e01b81149150610b43565b9181601f840112156101565782359167ffffffffffffffff8311610156576020838186019501011161015657565b600435906001600160a01b038216820361015657565b602435906001600160a01b038216820361015657565b91908251928382525f5b848110610c0f575050825f602080949584010152601f8019910116010190565b602081830181015184830182015201610bef565b15610c2a57565b60405162461bcd60e51b815260206004820152601a60248201527f4167656e744163636f756e743a206e6f7420677561726469616e0000000000006044820152606490fd5b15610c7657565b60405162461bcd60e51b815260206004820152601a60248201527f4167656e744163636f756e743a206f776e6572206163746976650000000000006044820152606490fd5b15610cc257565b60405162461bcd60e51b81526020600482015260156024820152744167656e744163636f756e743a207a65726f20746f60581b6044820152606490fd5b90601f8019910116810190811067ffffffffffffffff821117610d2157604052565b634e487b7160e01b5f52604160045260245ffd5b3d15610d6f573d9067ffffffffffffffff8211610d215760405191610d64601f8201601f191660200184610cff565b82523d5f602084013e565b606090565b90610d7f9291610f43565b6001600160a01b03811615159081610dae575b50610da3576001600160e01b031990565b630b135d3f60e11b90565b610db89150610fd8565b5f610d92565b15610dc557565b60405162461bcd60e51b815260206004820152601c60248201527f4167656e744163636f756e743a206e6f7420617574686f72697a6564000000006044820152606490fd5b15610e1157565b60405162461bcd60e51b815260206004820152601960248201527f4167656e744163636f756e743a2063616c6c206661696c6564000000000000006044820152606490fd5b909280608093610e969695845260606020850152816060850152848401375f838284010152601f8019910116810190604083828403019101520190610be5565b90565b610ea290610fd8565b610eaa575f90565b630291f19360e51b90565b6002544603610f3f5760018060a01b03805f54169060206001546024604051809581936331a9108f60e11b835260048301525afa918215610f34575f92610efb57505090565b9091506020813d602011610f2c575b81610f1760209383610cff565b81010312610156575190811681036101565790565b3d9150610f0a565b6040513d5f823e3d90fd5b5f90565b91604103610fd25760408101355f1a601b8110610fb2575b60ff1690601b82141580610fa7575b610fa057602092836080925f9460405193845282840152803560408401520135606082015282805260015afa15610f34575f5190565b5050505f90565b50601c821415610f6a565b601b0160ff811115610f5b57634e487b7160e01b5f52601160045260245ffd5b50505f90565b6001600160a01b0380610fe9610eb5565b16908115159283610ffb575b50505090565b168082149250908215611013575b50505f8080610ff5565b9091505f52600460205260405f20905f5260205260ff60405f2054165f8061100956fea26469706673582212206b907279ac7c6ef7deeab86d394640d81f3cdb79e3e9937daba7a3b19ed041b564736f6c63430008180033","linkReferences":{}},"methodIdentifiers":{"CALL()":"1cd48842","CREATE()":"81d0974d","CREATE2()":"4b5aea5d","DELEGATECALL()":"c44664af","authorizedCallers(address)":"536fff6c","authorizedCallersByOwner(address,address)":"df05fd2d","chainId()":"9a8a0592","execute(address,uint256,bytes,uint8)":"51945447","executeCall(address,uint256,bytes)":"9e5d4c49","guardianRegistry()":"4232a3c3","initialize(address,uint256,uint256)":"7a1ac61e","isValidSignature(bytes32,bytes)":"1626ba7e","isValidSigner(address,bytes)":"523e3260","owner()":"8da5cb5b","rescueERC20(address,address,uint256)":"b2118a8d","rescueNative(address,uint256)":"1291f79d","setAuthorizedCaller(address,bool)":"454bbd29","state()":"c19d93fb","supportsInterface(bytes4)":"01ffc9a7","token()":"fc0c546a","tokenContract()":"55a373d6","tokenId()":"17d70f7c"},"id":35}