{"abi":[{"type":"constructor","inputs":[{"name":"_beacon","type":"address","internalType":"address"}],"stateMutability":"nonpayable"},{"type":"function","name":"account","inputs":[{"name":"implementation","type":"address","internalType":"address"},{"name":"salt","type":"bytes32","internalType":"bytes32"},{"name":"chainId","type":"uint256","internalType":"uint256"},{"name":"tokenContract","type":"address","internalType":"address"},{"name":"tokenId","type":"uint256","internalType":"uint256"}],"outputs":[{"name":"","type":"address","internalType":"address"}],"stateMutability":"view"},{"type":"function","name":"accountAddress","inputs":[{"name":"tokenContract","type":"address","internalType":"address"},{"name":"tokenId","type":"uint256","internalType":"uint256"},{"name":"chainId","type":"uint256","internalType":"uint256"},{"name":"salt","type":"uint256","internalType":"uint256"}],"outputs":[{"name":"","type":"address","internalType":"address"}],"stateMutability":"view"},{"type":"function","name":"beacon","inputs":[],"outputs":[{"name":"","type":"address","internalType":"address"}],"stateMutability":"view"},{"type":"function","name":"createAccount","inputs":[{"name":"implementation","type":"address","internalType":"address"},{"name":"salt","type":"bytes32","internalType":"bytes32"},{"name":"chainId","type":"uint256","internalType":"uint256"},{"name":"tokenContract","type":"address","internalType":"address"},{"name":"tokenId","type":"uint256","internalType":"uint256"}],"outputs":[{"name":"accountAddr","type":"address","internalType":"address"}],"stateMutability":"nonpayable"},{"type":"function","name":"createAccount","inputs":[{"name":"tokenContract","type":"address","internalType":"address"},{"name":"tokenId","type":"uint256","internalType":"uint256"},{"name":"chainId","type":"uint256","internalType":"uint256"},{"name":"salt","type":"uint256","internalType":"uint256"}],"outputs":[{"name":"","type":"address","internalType":"address"}],"stateMutability":"nonpayable"},{"type":"function","name":"rescueAccountERC20","inputs":[{"name":"accountAddr","type":"address","internalType":"address"},{"name":"token","type":"address","internalType":"address"},{"name":"to","type":"address","internalType":"address"},{"name":"amount","type":"uint256","internalType":"uint256"}],"outputs":[],"stateMutability":"nonpayable"},{"type":"function","name":"rescueAccountNative","inputs":[{"name":"accountAddr","type":"address","internalType":"address"},{"name":"to","type":"address","internalType":"address payable"},{"name":"amount","type":"uint256","internalType":"uint256"}],"outputs":[],"stateMutability":"nonpayable"},{"type":"event","name":"AccountCreated","inputs":[{"name":"account","type":"address","indexed":true,"internalType":"address"},{"name":"tokenContract","type":"address","indexed":true,"internalType":"address"},{"name":"tokenId","type":"uint256","indexed":true,"internalType":"uint256"},{"name":"chainId","type":"uint256","indexed":false,"internalType":"uint256"},{"name":"salt","type":"uint256","indexed":false,"internalType":"uint256"}],"anonymous":false},{"type":"event","name":"AccountRescuedERC20","inputs":[{"name":"account","type":"address","indexed":true,"internalType":"address"},{"name":"token","type":"address","indexed":true,"internalType":"address"},{"name":"to","type":"address","indexed":true,"internalType":"address"},{"name":"amount","type":"uint256","indexed":false,"internalType":"uint256"}],"anonymous":false},{"type":"event","name":"AccountRescuedNative","inputs":[{"name":"account","type":"address","indexed":true,"internalType":"address"},{"name":"to","type":"address","indexed":true,"internalType":"address"},{"name":"amount","type":"uint256","indexed":false,"internalType":"uint256"}],"anonymous":false},{"type":"event","name":"ERC6551AccountCreated","inputs":[{"name":"account","type":"address","indexed":false,"internalType":"address"},{"name":"implementation","type":"address","indexed":true,"internalType":"address"},{"name":"salt","type":"bytes32","indexed":false,"internalType":"bytes32"},{"name":"chainId","type":"uint256","indexed":false,"internalType":"uint256"},{"name":"tokenContract","type":"address","indexed":true,"internalType":"address"},{"name":"tokenId","type":"uint256","indexed":true,"internalType":"uint256"}],"anonymous":false},{"type":"error","name":"AccountCreationFailed","inputs":[]}],"bytecode":{"object":"0x60a0346100da57601f610f0038819003918201601f19168301916001600160401b038311848410176100de578084926020946040528339810103126100da57516001600160a01b0381168082036100da571561008b57608052604051610e0d90816100f3823960805181818160c20152818161020a015281816103120152818161045f01526104ac0152f35b60405162461bcd60e51b815260206004820152602160248201527f4167656e744163636f756e7452656769737472793a207a65726f20626561636f6044820152603760f91b6064820152608490fd5b5f80fd5b634e487b7160e01b5f52604160045260245ffdfe6040608081526004908136101562000015575f80fd5b5f915f3560e01c8063246a002114620004d1578063375801f1146200048e57806359659e9014620004495780638a54c52f1462000415578063b579616014620002b2578063d1ce956514620001da5763e8d16bb91462000073575f80fd5b34620001d6576060366003190112620001d65762000090620004f4565b6001600160a01b036024358181169491869186900362000192578251638da5cb5b60e01b8152604435949060208188817f000000000000000000000000000000000000000000000000000000000000000087165afa908115620001cc5762000106918491869162000196575b501633146200078e565b1693843b15620001925785835191631291f79d60e01b8352820152836024820152818160448183895af1801562000188576200016c575b50507f9a31b9d8e1340ff248b39cd28255721dd1a07774113cca5c1bb4c365389cda579160209151908152a380f35b62000177906200057b565b6200018457845f6200013d565b8480fd5b83513d84823e3d90fd5b5080fd5b620001bd915060203d602011620001c4575b620001b48183620005a4565b8101906200076d565b5f620000fc565b503d620001a8565b85513d86823e3d90fd5b8280fd5b509034620001d65760206200025b92620001f4366200054b565b8651638a54c52f60e01b81526001600160a01b037f000000000000000000000000000000000000000000000000000000000000000081169682019687526020870192909252604086019290925290921660608401526080830152938491829160a090910190565b038186305af1918215620002a8576020939262000284575b50516001600160a01b039091168152f35b620002a0919250833d8511620001c457620001b48183620005a4565b905f62000273565b81513d85823e3d90fd5b5034620004075760803660031901126200040757620002d0620004f4565b6001600160a01b03926024358481169392919084900362000407576044359480861680960362000407578151638da5cb5b60e01b8152606435939060208187817f000000000000000000000000000000000000000000000000000000000000000087165afa9081156200040b57620003559184915f916200019657501633146200078e565b1692833b1562000407578482519163b2118a8d60e01b83528201528560248201528260448201525f8160648183885af18015620003fd57620003c0575b507fca7f15b6c27f2dfa08077a39b2f82995b05e6176b8226ffa5ccfd816237d01ca9160209151908152a480f35b602091965091620003f27fca7f15b6c27f2dfa08077a39b2f82995b05e6176b8226ffa5ccfd816237d01ca936200057b565b5f9691509162000392565b82513d5f823e3d90fd5b5f80fd5b84513d5f823e3d90fd5b82346200040757602090620004386200042e366200050b565b9392909262000627565b90516001600160a01b039091168152f35b823462000407575f3660031901126200040757517f00000000000000000000000000000000000000000000000000000000000000006001600160a01b03168152602090f35b8234620004075760209062000438620004a7366200054b565b9291927f0000000000000000000000000000000000000000000000000000000000000000620007ea565b8234620004075760209062000438620004ea366200050b565b93929092620007ea565b600435906001600160a01b03821682036200040757565b60a090600319011262000407576001600160a01b039060043582811681036200040757916024359160443591606435908116810362000407579060843590565b608090600319011262000407576004356001600160a01b0381168103620004075790602435906044359060643590565b67ffffffffffffffff81116200059057604052565b634e487b7160e01b5f52604160045260245ffd5b90601f8019910116810190811067ffffffffffffffff8211176200059057604052565b5f5b838110620005d95750505f910152565b8181015183820152602001620005c9565b909160609260018060a01b03168252604060208301526200061b8151809281604086015260208686019101620005c7565b601f01601f1916010190565b94939291906200063b848484848a620007ea565b803b62000765575060408051633d0d630f60e11b60208201526001600160a01b038516602482015260448101869052606481018490529096906200068d81608481015b03601f198101835282620005a4565b6200069c868686868662000920565b9088519061046d908183019083821067ffffffffffffffff831117620005905785620006d09285946200096b8639620005ea565b03905ff59081156200075b57927fc26cdbdc4b685b6e5c4f2ca7f89f50ec347ac311c90f46bae42047f5d5003dad92867f79f19b3655ee38b1ce526556b7731a20c8f218fbda4a3990b6cc4172fdf8872299936060979660018060a01b039b8c8093169c8d9916998a938851938b8552876020860152888a8601521692a482519182526020820152a4565b87513d5f823e3d90fd5b955050505050565b908160209103126200040757516001600160a01b0381168103620004075790565b156200079657565b60405162461bcd60e51b815260206004820152602660248201527f4167656e744163636f756e7452656769737472793a206e6f7420626561636f6e6044820152651037bbb732b960d11b6064820152608490fd5b90620008cf62000802868686620008c2958762000920565b60408051633d0d630f60e11b6020808301919091526001600160a01b0398909816602482015260448101989098526064808901969096529487529495601f199387919062000852608483620005a4565b6200088c6200089961046d978951946200086f878b0187620005a4565b898652868601996200096b8b398a519384918883019687620005ea565b03908101835282620005a4565b8751958693620008b2868601998a9251928391620005c7565b84019151809386840190620005c7565b01038084520182620005a4565b51902081519384019260ff60f81b84523060601b60218601526035850152605584015260558352608083019083821067ffffffffffffffff831117620005905752905190206001600160a01b031690565b604080516001600160a01b0392831660208201908152918101939093526060830193909352909216608083015260a0820192909252620009648160c081016200067e565b5190209056fe60a060409080825261046d8038038091610019828561027d565b833981019082818303126101a757610030816102a0565b916020918281015160018060401b03918282116101a7570182601f820112156101a757805191821161026957855192610072601f8401601f191686018561027d565b8284528483830101116101a75783905f5b8381106102555750505f9183010152823b15610235577fa3f0ad74e5423aebfd80d3ef4346578335a9a72aeaee59ff6cb3582b35133d5080546001600160a01b0319166001600160a01b038581169182179092558551635c60da1b60e01b8082529194928382600481895afa91821561022b575f926101f4575b50813b156101db5750508551847f1cf3b03a6cf19fa2baba4df148e9dcabedea7f8a5c07840e207e5c089be95d3e5f80a28351156101bc57508190600487518096819382525afa9081156101b2575f91610177575b5061015d92506102b4565b505b60805251610127908161034682396080518160180152f35b905082813d83116101ab575b61018d818361027d565b810103126101a7576101a161015d926102a0565b5f610152565b5f80fd5b503d610183565b85513d5f823e3d90fd5b9350505050346101cc575061015f565b63b398979f60e01b8152600490fd5b8751634c9c8ce360e01b81529116600482015260249150fd5b9091508381813d8311610224575b61020c818361027d565b810103126101a75761021d906102a0565b905f6100fd565b503d610202565b88513d5f823e3d90fd5b8351631933b43b60e21b81526001600160a01b0384166004820152602490fd5b818101830151858201840152859201610083565b634e487b7160e01b5f52604160045260245ffd5b601f909101601f19168101906001600160401b0382119082101761026957604052565b51906001600160a01b03821682036101a757565b905f8091602081519101845af48080610332575b156102e85750506040513d81523d5f602083013e60203d82010160405290565b1561030f57604051639996b31560e01b81526001600160a01b039091166004820152602490fd5b3d15610320576040513d5f823e3d90fd5b60405163d6bda27560e01b8152600490fd5b503d1515806102c85750813b15156102c856fe60806040819052635c60da1b60e01b81526020816004817f00000000000000000000000000000000000000000000000000000000000000006001600160a01b03165afa90811560a6575f916053575b5060d5565b905060203d60201160a0575b601f8101601f191682019167ffffffffffffffff831181841017608c576087926040520160b1565b5f604e565b634e487b7160e01b5f52604160045260245ffd5b503d605f565b6040513d5f823e3d90fd5b602090607f19011260d1576080516001600160a01b038116810360d15790565b5f80fd5b5f8091368280378136915af43d5f803e1560ed573d5ff35b3d5ffdfea2646970667358221220bbf87e106b0c663e9f0883b8a6f01b681144e90c52626541079dbf5d1a168ef764736f6c63430008180033a264697066735822122082c77c77d5a1fbe365e7e95a274fef08504aeb7dc9e88221b608667abf36e92864736f6c63430008180033","linkReferences":{}},"methodIdentifiers":{"account(address,bytes32,uint256,address,uint256)":"246a0021","accountAddress(address,uint256,uint256,uint256)":"375801f1","beacon()":"59659e90","createAccount(address,bytes32,uint256,address,uint256)":"8a54c52f","createAccount(address,uint256,uint256,uint256)":"d1ce9565","rescueAccountERC20(address,address,address,uint256)":"b5796160","rescueAccountNative(address,address,uint256)":"e8d16bb9"},"id":37}