{"abi":[{"type":"constructor","inputs":[],"stateMutability":"nonpayable"},{"type":"function","name":"UPGRADE_INTERFACE_VERSION","inputs":[],"outputs":[{"name":"","type":"string","internalType":"string"}],"stateMutability":"view"},{"type":"function","name":"cycleRoots","inputs":[{"name":"","type":"bytes32","internalType":"bytes32"},{"name":"","type":"bytes32","internalType":"bytes32"}],"outputs":[{"name":"root","type":"bytes32","internalType":"bytes32"},{"name":"submittedAt","type":"uint64","internalType":"uint64"},{"name":"exists","type":"bool","internalType":"bool"}],"stateMutability":"view"},{"type":"function","name":"hasCycleRoot","inputs":[{"name":"seasonId","type":"string","internalType":"string"},{"name":"cycleId","type":"string","internalType":"string"}],"outputs":[{"name":"","type":"bool","internalType":"bool"}],"stateMutability":"view"},{"type":"function","name":"initialize","inputs":[{"name":"initialOwner","type":"address","internalType":"address"}],"outputs":[],"stateMutability":"nonpayable"},{"type":"function","name":"owner","inputs":[],"outputs":[{"name":"","type":"address","internalType":"address"}],"stateMutability":"view"},{"type":"function","name":"pause","inputs":[],"outputs":[],"stateMutability":"nonpayable"},{"type":"function","name":"paused","inputs":[],"outputs":[{"name":"","type":"bool","internalType":"bool"}],"stateMutability":"view"},{"type":"function","name":"proxiableUUID","inputs":[],"outputs":[{"name":"","type":"bytes32","internalType":"bytes32"}],"stateMutability":"view"},{"type":"function","name":"seasonCycleCount","inputs":[{"name":"","type":"bytes32","internalType":"bytes32"}],"outputs":[{"name":"","type":"uint256","internalType":"uint256"}],"stateMutability":"view"},{"type":"function","name":"submitCycleRoot","inputs":[{"name":"seasonId","type":"string","internalType":"string"},{"name":"cycleId","type":"string","internalType":"string"},{"name":"cycleRoot","type":"bytes32","internalType":"bytes32"}],"outputs":[],"stateMutability":"nonpayable"},{"type":"function","name":"transferOwnership","inputs":[{"name":"newOwner","type":"address","internalType":"address"}],"outputs":[],"stateMutability":"nonpayable"},{"type":"function","name":"unpause","inputs":[],"outputs":[],"stateMutability":"nonpayable"},{"type":"function","name":"upgradeToAndCall","inputs":[{"name":"newImplementation","type":"address","internalType":"address"},{"name":"data","type":"bytes","internalType":"bytes"}],"outputs":[],"stateMutability":"payable"},{"type":"event","name":"CycleRootSubmitted","inputs":[{"name":"seasonId","type":"string","indexed":true,"internalType":"string"},{"name":"cycleId","type":"string","indexed":true,"internalType":"string"},{"name":"cycleRoot","type":"bytes32","indexed":true,"internalType":"bytes32"}],"anonymous":false},{"type":"event","name":"Initialized","inputs":[{"name":"version","type":"uint64","indexed":false,"internalType":"uint64"}],"anonymous":false},{"type":"event","name":"OwnershipTransferred","inputs":[{"name":"previousOwner","type":"address","indexed":true,"internalType":"address"},{"name":"newOwner","type":"address","indexed":true,"internalType":"address"}],"anonymous":false},{"type":"event","name":"Paused","inputs":[{"name":"by","type":"address","indexed":true,"internalType":"address"}],"anonymous":false},{"type":"event","name":"Unpaused","inputs":[{"name":"by","type":"address","indexed":true,"internalType":"address"}],"anonymous":false},{"type":"event","name":"Upgraded","inputs":[{"name":"implementation","type":"address","indexed":true,"internalType":"address"}],"anonymous":false},{"type":"error","name":"AddressEmptyCode","inputs":[{"name":"target","type":"address","internalType":"address"}]},{"type":"error","name":"ERC1967InvalidImplementation","inputs":[{"name":"implementation","type":"address","internalType":"address"}]},{"type":"error","name":"ERC1967NonPayable","inputs":[]},{"type":"error","name":"FailedCall","inputs":[]},{"type":"error","name":"InvalidInitialization","inputs":[]},{"type":"error","name":"NotInitializing","inputs":[]},{"type":"error","name":"UUPSUnauthorizedCallContext","inputs":[]},{"type":"error","name":"UUPSUnsupportedProxiableUUID","inputs":[{"name":"slot","type":"bytes32","internalType":"bytes32"}]}],"bytecode":{"object":"0x60a080604052346100cc57306080527ff0c57e16840df040f15088dc2f81fe391c3923bec73e23a9662efc9c229c6a009081549060ff8260401c166100bd57506001600160401b036002600160401b031982821601610078575b604051610c3090816100d182396080518181816104a401526105880152f35b6001600160401b031990911681179091556040519081527fc7f505b2f371ae2175ee4913f4499e1f2633a7b5936321eed1cdaeb6115181d290602090a15f8080610059565b63f92ee8a960e01b8152600490fd5b5f80fdfe6080604081815260049081361015610015575f80fd5b5f3560e01c92836308be947714610a3f575082633f4ba83a146109e95782633f885781146109965782634c54efa4146107425782634f1ef2861461050857826352d1902d146104925782635c975abb1461046e5782638456cb591461040f5782638da5cb5b146103e9578263ad3cb1cc1461034c578263c4d66de8146101e4578263d33cbd471461012757505063f2fde38b146100b0575f80fd5b34610123576020366003190112610123576100c9610a90565b5f546001600160a01b03808216926100e2338514610adc565b1680926100f0821515610b1d565b7f8be0079c531659141344cd1fd0a4f28419497f9722a3daafe3b4186f6b6457e05f80a36001600160a01b031916175f55005b5f80fd5b3461012357806003193601126101235767ffffffffffffffff8235818111610123576101569036908501610a62565b9091602435908111610123576101989461017291369101610a62565b929091845195869160209781899283830196873781015f83820152038084520182610aa6565b519020916101bd85855183819483830196873781015f83820152038084520182610aa6565b519020905f5260018352815f20905f52825260ff6001825f200154821c1690519015158152f35b9034610123576020366003190112610123576101fe610a90565b907ff0c57e16840df040f15088dc2f81fe391c3923bec73e23a9662efc9c229c6a0091825460ff81861c16159267ffffffffffffffff821680159081610344575b600114908161033a575b159081610331575b50610323575067ffffffffffffffff198116600117845582610304575b506001600160a01b031692610284841515610b1d565b5192805f7f8be0079c531659141344cd1fd0a4f28419497f9722a3daafe3b4186f6b6457e08180a36bffffffffffffffffffffffff60a01b5f5416175f556102c857005b805468ff000000000000000019169055600181527fc7f505b2f371ae2175ee4913f4499e1f2633a7b5936321eed1cdaeb6115181d290602090a1005b68ffffffffffffffffff1916680100000000000000011783558461026e565b855163f92ee8a960e01b8152fd5b90501587610251565b303b159150610249565b85915061023f565b34610123575f366003190112610123578051918183019083821067ffffffffffffffff8311176103d657508152600582526020640352e302e360dc1b60208401528151928391602083528151918260208501525f5b8381106103c05750505f83830185015250601f01601f19168101030190f35b81810183015187820187015286945082016103a1565b604190634e487b7160e01b5f525260245ffd5b34610123575f366003190112610123575f5490516001600160a01b039091168152602090f35b34610123575f366003190112610123575f54610435336001600160a01b03831614610adc565b60ff60a01b1916600160a01b175f90815533907f62e78cea01bee320cd4e420270b5ea74000d11b0c9f74754ebdbfc544b05a2589080a2005b34610123575f3660031901126101235760209060ff5f5460a01c1690519015158152f35b34610123575f366003190112610123577f00000000000000000000000000000000000000000000000000000000000000006001600160a01b031630036104fb57602090517f360894a13ba1a3210667c828492db98dca3e2076cc3735a920a3ca505d382bbc8152f35b5163703e46dd60e11b8152fd5b90816003193601126101235761051c610a90565b602492833567ffffffffffffffff92838211610123573660238301121561012357818501359384116107305760209383519261056186601f19601f8501160185610aa6565b8184523688838301011161012357815f928988930183870137840101526001600160a01b037f00000000000000000000000000000000000000000000000000000000000000008116308114908115610702575b506106f2576105c7815f54163314610adc565b83516352d1902d60e01b81529082169480828881895afa9182915f936106c2575b5050610602575050505191634c9c8ce360e01b8352820152fd5b85938591887f360894a13ba1a3210667c828492db98dca3e2076cc3735a920a3ca505d382bbc918281036106ad5750843b15610699575080546001600160a01b0319168317905551907fbc7cd75a20ee27fd9adebab32041f755214dbc6bffa90cc0225b39da2e5c2d3b5f80a282511561068357506106819250610b69565b005b9150503461068d57005b63b398979f60e01b8152fd5b8251634c9c8ce360e01b8152808801859052fd5b8351632a87526960e21b815280890191909152fd5b9080929350813d83116106eb575b6106da8183610aa6565b8101031261012357519088806105e8565b503d6106d0565b835163703e46dd60e11b81528690fd5b9050817f360894a13ba1a3210667c828492db98dca3e2076cc3735a920a3ca505d382bbc54161415886105b4565b85604186634e487b7160e01b5f52525ffd5b346101235760603660031901126101235767ffffffffffffffff8235818111610123576107729036908501610a62565b6024929192358281116101235761078c9036908701610a62565b9390926044359660ff5f546107aa60018060a01b0382163314610adc565b60a01c1661095357865160209081810190868683376107d783828981015f83820152038084520182610aa6565b519020885182810190898983376107fc84828c81015f83820152038084520182610aa6565b519020815f526001948584528a5f20825f52845260ff868c5f2001548c1c16610912578a5160608101818110838211176108ff5791876002969594928f8f958652815286810194834216865280820194838652875f52838952815f20905f5288525f20905181550192511668ff00000000000000008d845493511515901b169168ffffffffffffffffff1916171790555f5252865f209081549283018093116108ec5750908593929155818651928392833781015f81520390209351928392833781015f8152039020907f37fb824dc0864d58217fbc1a6224f1a1e566353a79ebad29298e12eaaa318ee65f80a4005b601190634e487b7160e01b5f525260245ffd5b604187634e487b7160e01b5f525260245ffd5b60648585808e519262461bcd60e51b845283015260248201527f4c6561726e696e67526f6f744f7261636c653a206379636c65206578697374736044820152fd5b606490602088519162461bcd60e51b8352820152601a60248201527f4c6561726e696e67526f6f744f7261636c653a207061757365640000000000006044820152fd5b34610123578060031936011261012357606091355f526001602052805f206024355f52602052805f209060ff60018354930154825193845267ffffffffffffffff81166020850152821c16151590820152f35b34610123575f366003190112610123575f54610a0f336001600160a01b03831614610adc565b60ff60a01b19165f55337f5db9ee0a495bf2e6ff9c91a7834c1ba4fdd244a5e8aa4e537bd38aeae4b073aa5f80a2005b903461012357602036600319011261012357602092355f52600283525f20548152f35b9181601f840112156101235782359167ffffffffffffffff8311610123576020838186019501011161012357565b600435906001600160a01b038216820361012357565b90601f8019910116810190811067ffffffffffffffff821117610ac857604052565b634e487b7160e01b5f52604160045260245ffd5b15610ae357565b60405162461bcd60e51b815260206004820152601260248201527127bbb730b136329d103737ba1037bbb732b960711b6044820152606490fd5b15610b2457565b60405162461bcd60e51b815260206004820152601e60248201527f4c6561726e696e67526f6f744f7261636c653a207a65726f206f776e657200006044820152606490fd5b905f8091602081519101845af48080610be7575b15610b9d5750506040513d81523d5f602083013e60203d82010160405290565b15610bc457604051639996b31560e01b81526001600160a01b039091166004820152602490fd5b3d15610bd5576040513d5f823e3d90fd5b60405163d6bda27560e01b8152600490fd5b503d151580610b7d5750813b1515610b7d56fea2646970667358221220181fd6d557f6434e7d756fb4ee54e6f0ff45bc998c3878e6a41a74625bff875564736f6c63430008180033","linkReferences":{}},"methodIdentifiers":{"UPGRADE_INTERFACE_VERSION()":"ad3cb1cc","cycleRoots(bytes32,bytes32)":"3f885781","hasCycleRoot(string,string)":"d33cbd47","initialize(address)":"c4d66de8","owner()":"8da5cb5b","pause()":"8456cb59","paused()":"5c975abb","proxiableUUID()":"52d1902d","seasonCycleCount(bytes32)":"08be9477","submitCycleRoot(string,string,bytes32)":"4c54efa4","transferOwnership(address)":"f2fde38b","unpause()":"3f4ba83a","upgradeToAndCall(address,bytes)":"4f1ef286"},"id":41}